{
	"poker.sol": {
		"Poker": {
			"abi": [
				{
					"inputs": [],
					"stateMutability": "nonpayable",
					"type": "constructor"
				},
				{
					"inputs": [
						{
							"internalType": "address",
							"name": "player",
							"type": "address"
						}
					],
					"name": "addPlayer",
					"outputs": [],
					"stateMutability": "nonpayable",
					"type": "function"
				},
				{
					"inputs": [],
					"name": "allParlayEqual",
					"outputs": [
						{
							"internalType": "bool",
							"name": "",
							"type": "bool"
						}
					],
					"stateMutability": "view",
					"type": "function"
				},
				{
					"inputs": [],
					"name": "croupier",
					"outputs": [
						{
							"internalType": "address",
							"name": "",
							"type": "address"
						}
					],
					"stateMutability": "view",
					"type": "function"
				},
				{
					"inputs": [],
					"name": "getMaxPrice",
					"outputs": [
						{
							"internalType": "uint256",
							"name": "",
							"type": "uint256"
						}
					],
					"stateMutability": "view",
					"type": "function"
				},
				{
					"inputs": [
						{
							"internalType": "address",
							"name": "",
							"type": "address"
						}
					],
					"name": "isPlayer",
					"outputs": [
						{
							"internalType": "bool",
							"name": "",
							"type": "bool"
						}
					],
					"stateMutability": "view",
					"type": "function"
				},
				{
					"inputs": [],
					"name": "makeParlay",
					"outputs": [],
					"stateMutability": "payable",
					"type": "function"
				},
				{
					"inputs": [],
					"name": "money",
					"outputs": [
						{
							"internalType": "uint256",
							"name": "",
							"type": "uint256"
						}
					],
					"stateMutability": "view",
					"type": "function"
				},
				{
					"inputs": [],
					"name": "pass",
					"outputs": [],
					"stateMutability": "nonpayable",
					"type": "function"
				},
				{
					"inputs": [
						{
							"internalType": "address",
							"name": "winner",
							"type": "address"
						}
					],
					"name": "payout",
					"outputs": [],
					"stateMutability": "nonpayable",
					"type": "function"
				},
				{
					"inputs": [
						{
							"internalType": "uint256",
							"name": "",
							"type": "uint256"
						}
					],
					"name": "players",
					"outputs": [
						{
							"internalType": "address",
							"name": "",
							"type": "address"
						}
					],
					"stateMutability": "view",
					"type": "function"
				},
				{
					"inputs": [
						{
							"internalType": "address",
							"name": "",
							"type": "address"
						}
					],
					"name": "price",
					"outputs": [
						{
							"internalType": "uint256",
							"name": "",
							"type": "uint256"
						}
					],
					"stateMutability": "view",
					"type": "function"
				},
				{
					"inputs": [
						{
							"internalType": "address",
							"name": "player",
							"type": "address"
						}
					],
					"name": "removePlayer",
					"outputs": [],
					"stateMutability": "nonpayable",
					"type": "function"
				}
			],
			"devdoc": {
				"kind": "dev",
				"methods": {},
				"version": 1
			},
			"evm": {
				"assembly": "    /* \"poker.sol\":62:2591  contract Poker {... */\n  mstore(0x40, 0x80)\n    /* \"poker.sol\":262:316  constructor() {... */\n  callvalue\n  dup1\n  iszero\n  tag_1\n  jumpi\n  revert(0x00, 0x00)\ntag_1:\n  pop\n    /* \"poker.sol\":298:308  msg.sender */\n  caller\n    /* \"poker.sol\":287:295  croupier */\n  0x01\n  0x00\n    /* \"poker.sol\":287:308  croupier = msg.sender */\n  0x0100\n  exp\n  dup2\n  sload\n  dup2\n  0xffffffffffffffffffffffffffffffffffffffff\n  mul\n  not\n  and\n  swap1\n  dup4\n  0xffffffffffffffffffffffffffffffffffffffff\n  and\n  mul\n  or\n  swap1\n  sstore\n  pop\n    /* \"poker.sol\":62:2591  contract Poker {... */\n  dataSize(sub_0)\n  dup1\n  dataOffset(sub_0)\n  0x00\n  codecopy\n  0x00\n  return\nstop\n\nsub_0: assembly {\n        /* \"poker.sol\":62:2591  contract Poker {... */\n      mstore(0x40, 0x80)\n      jumpi(tag_1, lt(calldatasize, 0x04))\n      shr(0xe0, calldataload(0x00))\n      dup1\n      0x82d8dff6\n      gt\n      tag_14\n      jumpi\n      dup1\n      0x82d8dff6\n      eq\n      tag_8\n      jumpi\n      dup1\n      0x9fe6f59c\n      eq\n      tag_9\n      jumpi\n      dup1\n      0xa7a1ed72\n      eq\n      tag_10\n      jumpi\n      dup1\n      0xaea91078\n      eq\n      tag_11\n      jumpi\n      dup1\n      0xb1275f9a\n      eq\n      tag_12\n      jumpi\n      dup1\n      0xf71d96cb\n      eq\n      tag_13\n      jumpi\n      jump(tag_1)\n    tag_14:\n      dup1\n      0x09c95e10\n      eq\n      tag_2\n      jumpi\n      dup1\n      0x0b6df43a\n      eq\n      tag_3\n      jumpi\n      dup1\n      0x0b7e9c44\n      eq\n      tag_4\n      jumpi\n      dup1\n      0x4ddd108a\n      eq\n      tag_5\n      jumpi\n      dup1\n      0x5bb12a1a\n      eq\n      tag_6\n      jumpi\n      dup1\n      0x6b5c5f39\n      eq\n      tag_7\n      jumpi\n    tag_1:\n      revert(0x00, 0x00)\n        /* \"poker.sol\":169:209  mapping(address => bool) public isPlayer */\n    tag_2:\n      callvalue\n      dup1\n      iszero\n      tag_15\n      jumpi\n      revert(0x00, 0x00)\n    tag_15:\n      pop\n      tag_16\n      0x04\n      dup1\n      calldatasize\n      sub\n      dup2\n      add\n      swap1\n      tag_17\n      swap2\n      swap1\n      tag_18\n      jump\t// in\n    tag_17:\n      tag_19\n      jump\t// in\n    tag_16:\n      mload(0x40)\n      tag_20\n      swap2\n      swap1\n      tag_21\n      jump\t// in\n    tag_20:\n      mload(0x40)\n      dup1\n      swap2\n      sub\n      swap1\n      return\n        /* \"poker.sol\":1906:2199  function allParlayEqual() public view returns(bool) {... */\n    tag_3:\n      callvalue\n      dup1\n      iszero\n      tag_22\n      jumpi\n      revert(0x00, 0x00)\n    tag_22:\n      pop\n      tag_23\n      tag_24\n      jump\t// in\n    tag_23:\n      mload(0x40)\n      tag_25\n      swap2\n      swap1\n      tag_21\n      jump\t// in\n    tag_25:\n      mload(0x40)\n      dup1\n      swap2\n      sub\n      swap1\n      return\n        /* \"poker.sol\":2207:2588  function payout(address winner) public onlyCroupier {... */\n    tag_4:\n      callvalue\n      dup1\n      iszero\n      tag_26\n      jumpi\n      revert(0x00, 0x00)\n    tag_26:\n      pop\n      tag_27\n      0x04\n      dup1\n      calldatasize\n      sub\n      dup2\n      add\n      swap1\n      tag_28\n      swap2\n      swap1\n      tag_18\n      jump\t// in\n    tag_28:\n      tag_29\n      jump\t// in\n    tag_27:\n      stop\n        /* \"poker.sol\":84:101  uint public money */\n    tag_5:\n      callvalue\n      dup1\n      iszero\n      tag_30\n      jumpi\n      revert(0x00, 0x00)\n    tag_30:\n      pop\n      tag_31\n      tag_32\n      jump\t// in\n    tag_31:\n      mload(0x40)\n      tag_33\n      swap2\n      swap1\n      tag_34\n      jump\t// in\n    tag_33:\n      mload(0x40)\n      dup1\n      swap2\n      sub\n      swap1\n      return\n        /* \"poker.sol\":755:853  function removePlayer(address player) public onlyCroupier {... */\n    tag_6:\n      callvalue\n      dup1\n      iszero\n      tag_35\n      jumpi\n      revert(0x00, 0x00)\n    tag_35:\n      pop\n      tag_36\n      0x04\n      dup1\n      calldatasize\n      sub\n      dup2\n      add\n      swap1\n      tag_37\n      swap2\n      swap1\n      tag_18\n      jump\t// in\n    tag_37:\n      tag_38\n      jump\t// in\n    tag_36:\n      stop\n        /* \"poker.sol\":108:131  address public croupier */\n    tag_7:\n      callvalue\n      dup1\n      iszero\n      tag_39\n      jumpi\n      revert(0x00, 0x00)\n    tag_39:\n      pop\n      tag_40\n      tag_41\n      jump\t// in\n    tag_40:\n      mload(0x40)\n      tag_42\n      swap2\n      swap1\n      tag_43\n      jump\t// in\n    tag_42:\n      mload(0x40)\n      dup1\n      swap2\n      sub\n      swap1\n      return\n        /* \"poker.sol\":1362:1629  function getMaxPrice() public view returns (uint) {... */\n    tag_8:\n      callvalue\n      dup1\n      iszero\n      tag_44\n      jumpi\n      revert(0x00, 0x00)\n    tag_44:\n      pop\n      tag_45\n      tag_46\n      jump\t// in\n    tag_45:\n      mload(0x40)\n      tag_47\n      swap2\n      swap1\n      tag_34\n      jump\t// in\n    tag_47:\n      mload(0x40)\n      dup1\n      swap2\n      sub\n      swap1\n      return\n        /* \"poker.sol\":1637:1898  function makeParlay() public payable onlyPlayer {... */\n    tag_9:\n      tag_48\n      tag_49\n      jump\t// in\n    tag_48:\n      stop\n        /* \"poker.sol\":861:939  function pass() public onlyPlayer {... */\n    tag_10:\n      callvalue\n      dup1\n      iszero\n      tag_50\n      jumpi\n      revert(0x00, 0x00)\n    tag_50:\n      pop\n      tag_51\n      tag_52\n      jump\t// in\n    tag_51:\n      stop\n        /* \"poker.sol\":216:253  mapping(address => uint) public price */\n    tag_11:\n      callvalue\n      dup1\n      iszero\n      tag_53\n      jumpi\n      revert(0x00, 0x00)\n    tag_53:\n      pop\n      tag_54\n      0x04\n      dup1\n      calldatasize\n      sub\n      dup2\n      add\n      swap1\n      tag_55\n      swap2\n      swap1\n      tag_18\n      jump\t// in\n    tag_55:\n      tag_56\n      jump\t// in\n    tag_54:\n      mload(0x40)\n      tag_57\n      swap2\n      swap1\n      tag_34\n      jump\t// in\n    tag_57:\n      mload(0x40)\n      dup1\n      swap2\n      sub\n      swap1\n      return\n        /* \"poker.sol\":564:747  function addPlayer(address player) public onlyCroupier {... */\n    tag_12:\n      callvalue\n      dup1\n      iszero\n      tag_58\n      jumpi\n      revert(0x00, 0x00)\n    tag_58:\n      pop\n      tag_59\n      0x04\n      dup1\n      calldatasize\n      sub\n      dup2\n      add\n      swap1\n      tag_60\n      swap2\n      swap1\n      tag_18\n      jump\t// in\n    tag_60:\n      tag_61\n      jump\t// in\n    tag_59:\n      stop\n        /* \"poker.sol\":138:162  address[] public players */\n    tag_13:\n      callvalue\n      dup1\n      iszero\n      tag_62\n      jumpi\n      revert(0x00, 0x00)\n    tag_62:\n      pop\n      tag_63\n      0x04\n      dup1\n      calldatasize\n      sub\n      dup2\n      add\n      swap1\n      tag_64\n      swap2\n      swap1\n      tag_65\n      jump\t// in\n    tag_64:\n      tag_66\n      jump\t// in\n    tag_63:\n      mload(0x40)\n      tag_67\n      swap2\n      swap1\n      tag_43\n      jump\t// in\n    tag_67:\n      mload(0x40)\n      dup1\n      swap2\n      sub\n      swap1\n      return\n        /* \"poker.sol\":169:209  mapping(address => bool) public isPlayer */\n    tag_19:\n      mstore(0x20, 0x03)\n      dup1\n      0x00\n      mstore\n      keccak256(0x00, 0x40)\n      0x00\n      swap2\n      pop\n      sload\n      swap1\n      0x0100\n      exp\n      swap1\n      div\n      0xff\n      and\n      dup2\n      jump\t// out\n        /* \"poker.sol\":1906:2199  function allParlayEqual() public view returns(bool) {... */\n    tag_24:\n        /* \"poker.sol\":1952:1956  bool */\n      0x00\n        /* \"poker.sol\":1991:1992  0 */\n      0x00\n        /* \"poker.sol\":1973:1980  players */\n      0x02\n        /* \"poker.sol\":1973:1987  players.length */\n      dup1\n      sload\n      swap1\n      pop\n        /* \"poker.sol\":1973:1992  players.length == 0 */\n      sub\n        /* \"poker.sol\":1969:2005  if (players.length == 0) return true */\n      tag_69\n      jumpi\n        /* \"poker.sol\":2001:2005  true */\n      0x01\n        /* \"poker.sol\":1994:2005  return true */\n      swap1\n      pop\n      jump(tag_68)\n        /* \"poker.sol\":1969:2005  if (players.length == 0) return true */\n    tag_69:\n        /* \"poker.sol\":2016:2026  uint first */\n      0x00\n        /* \"poker.sol\":2029:2034  price */\n      0x04\n        /* \"poker.sol\":2029:2046  price[players[0]] */\n      0x00\n        /* \"poker.sol\":2035:2042  players */\n      0x02\n        /* \"poker.sol\":2043:2044  0 */\n      0x00\n        /* \"poker.sol\":2035:2045  players[0] */\n      dup2\n      sload\n      dup2\n      lt\n      tag_70\n      jumpi\n      tag_71\n      tag_72\n      jump\t// in\n    tag_71:\n    tag_70:\n      swap1\n      0x00\n      mstore\n      keccak256(0x00, 0x20)\n      add\n      0x00\n      swap1\n      sload\n      swap1\n      0x0100\n      exp\n      swap1\n      div\n      0xffffffffffffffffffffffffffffffffffffffff\n      and\n        /* \"poker.sol\":2029:2046  price[players[0]] */\n      0xffffffffffffffffffffffffffffffffffffffff\n      and\n      0xffffffffffffffffffffffffffffffffffffffff\n      and\n      dup2\n      mstore\n      0x20\n      add\n      swap1\n      dup2\n      mstore\n      0x20\n      add\n      0x00\n      keccak256\n      sload\n        /* \"poker.sol\":2016:2046  uint first = price[players[0]] */\n      swap1\n      pop\n        /* \"poker.sol\":2062:2068  uint i */\n      0x00\n        /* \"poker.sol\":2071:2072  1 */\n      0x01\n        /* \"poker.sol\":2062:2072  uint i = 1 */\n      swap1\n      pop\n        /* \"poker.sol\":2057:2170  for (uint i = 1; i < players.length; i++) {... */\n    tag_74:\n        /* \"poker.sol\":2078:2085  players */\n      0x02\n        /* \"poker.sol\":2078:2092  players.length */\n      dup1\n      sload\n      swap1\n      pop\n        /* \"poker.sol\":2074:2075  i */\n      dup2\n        /* \"poker.sol\":2074:2092  i < players.length */\n      lt\n        /* \"poker.sol\":2057:2170  for (uint i = 1; i < players.length; i++) {... */\n      iszero\n      tag_75\n      jumpi\n        /* \"poker.sol\":2139:2144  first */\n      dup2\n        /* \"poker.sol\":2118:2123  price */\n      0x04\n        /* \"poker.sol\":2118:2135  price[players[i]] */\n      0x00\n        /* \"poker.sol\":2124:2131  players */\n      0x02\n        /* \"poker.sol\":2132:2133  i */\n      dup5\n        /* \"poker.sol\":2124:2134  players[i] */\n      dup2\n      sload\n      dup2\n      lt\n      tag_77\n      jumpi\n      tag_78\n      tag_72\n      jump\t// in\n    tag_78:\n    tag_77:\n      swap1\n      0x00\n      mstore\n      keccak256(0x00, 0x20)\n      add\n      0x00\n      swap1\n      sload\n      swap1\n      0x0100\n      exp\n      swap1\n      div\n      0xffffffffffffffffffffffffffffffffffffffff\n      and\n        /* \"poker.sol\":2118:2135  price[players[i]] */\n      0xffffffffffffffffffffffffffffffffffffffff\n      and\n      0xffffffffffffffffffffffffffffffffffffffff\n      and\n      dup2\n      mstore\n      0x20\n      add\n      swap1\n      dup2\n      mstore\n      0x20\n      add\n      0x00\n      keccak256\n      sload\n        /* \"poker.sol\":2118:2144  price[players[i]] != first */\n      eq\n        /* \"poker.sol\":2114:2158  if (price[players[i]] != first) return false */\n      tag_80\n      jumpi\n        /* \"poker.sol\":2153:2158  false */\n      0x00\n        /* \"poker.sol\":2146:2158  return false */\n      swap3\n      pop\n      pop\n      pop\n      jump(tag_68)\n        /* \"poker.sol\":2114:2158  if (price[players[i]] != first) return false */\n    tag_80:\n        /* \"poker.sol\":2094:2097  i++ */\n      dup1\n      dup1\n      0x01\n      add\n      swap2\n      pop\n      pop\n        /* \"poker.sol\":2057:2170  for (uint i = 1; i < players.length; i++) {... */\n      jump(tag_74)\n    tag_75:\n      pop\n        /* \"poker.sol\":2187:2191  true */\n      0x01\n        /* \"poker.sol\":2180:2191  return true */\n      swap2\n      pop\n      pop\n        /* \"poker.sol\":1906:2199  function allParlayEqual() public view returns(bool) {... */\n    tag_68:\n      swap1\n      jump\t// out\n        /* \"poker.sol\":2207:2588  function payout(address winner) public onlyCroupier {... */\n    tag_29:\n        /* \"poker.sol\":381:389  croupier */\n      0x01\n      0x00\n      swap1\n      sload\n      swap1\n      0x0100\n      exp\n      swap1\n      div\n      0xffffffffffffffffffffffffffffffffffffffff\n      and\n        /* \"poker.sol\":367:389  msg.sender == croupier */\n      0xffffffffffffffffffffffffffffffffffffffff\n      and\n        /* \"poker.sol\":367:377  msg.sender */\n      caller\n        /* \"poker.sol\":367:389  msg.sender == croupier */\n      0xffffffffffffffffffffffffffffffffffffffff\n      and\n      eq\n        /* \"poker.sol\":359:419  require(msg.sender == croupier, \"Only croupier can do this\") */\n      tag_82\n      jumpi\n      mload(0x40)\n      0x08c379a000000000000000000000000000000000000000000000000000000000\n      dup2\n      mstore\n      0x04\n      add\n      tag_83\n      swap1\n      tag_84\n      jump\t// in\n    tag_83:\n      mload(0x40)\n      dup1\n      swap2\n      sub\n      swap1\n      revert\n    tag_82:\n        /* \"poker.sol\":2278:2286  isPlayer */\n      0x03\n        /* \"poker.sol\":2278:2294  isPlayer[winner] */\n      0x00\n        /* \"poker.sol\":2287:2293  winner */\n      dup3\n        /* \"poker.sol\":2278:2294  isPlayer[winner] */\n      0xffffffffffffffffffffffffffffffffffffffff\n      and\n      0xffffffffffffffffffffffffffffffffffffffff\n      and\n      dup2\n      mstore\n      0x20\n      add\n      swap1\n      dup2\n      mstore\n      0x20\n      add\n      0x00\n      keccak256\n      0x00\n      swap1\n      sload\n      swap1\n      0x0100\n      exp\n      swap1\n      div\n      0xff\n      and\n        /* \"poker.sol\":2270:2322  require(isPlayer[winner], \"Winner must be a player\") */\n      tag_86\n      jumpi\n      mload(0x40)\n      0x08c379a000000000000000000000000000000000000000000000000000000000\n      dup2\n      mstore\n      0x04\n      add\n      tag_87\n      swap1\n      tag_88\n      jump\t// in\n    tag_87:\n      mload(0x40)\n      dup1\n      swap2\n      sub\n      swap1\n      revert\n    tag_86:\n        /* \"poker.sol\":2333:2344  uint amount */\n      0x00\n        /* \"poker.sol\":2347:2352  money */\n      sload(0x00)\n        /* \"poker.sol\":2333:2352  uint amount = money */\n      swap1\n      pop\n        /* \"poker.sol\":2371:2372  0 */\n      0x00\n        /* \"poker.sol\":2363:2368  money */\n      0x00\n        /* \"poker.sol\":2363:2372  money = 0 */\n      dup2\n      swap1\n      sstore\n      pop\n        /* \"poker.sol\":2390:2396  uint i */\n      0x00\n        /* \"poker.sol\":2399:2400  0 */\n      0x00\n        /* \"poker.sol\":2390:2400  uint i = 0 */\n      swap1\n      pop\n        /* \"poker.sol\":2385:2475  for (uint i = 0; i < players.length; i++) {... */\n    tag_89:\n        /* \"poker.sol\":2406:2413  players */\n      0x02\n        /* \"poker.sol\":2406:2420  players.length */\n      dup1\n      sload\n      swap1\n      pop\n        /* \"poker.sol\":2402:2403  i */\n      dup2\n        /* \"poker.sol\":2402:2420  i < players.length */\n      lt\n        /* \"poker.sol\":2385:2475  for (uint i = 0; i < players.length; i++) {... */\n      iszero\n      tag_90\n      jumpi\n        /* \"poker.sol\":2462:2463  0 */\n      0x00\n        /* \"poker.sol\":2442:2447  price */\n      0x04\n        /* \"poker.sol\":2442:2459  price[players[i]] */\n      0x00\n        /* \"poker.sol\":2448:2455  players */\n      0x02\n        /* \"poker.sol\":2456:2457  i */\n      dup5\n        /* \"poker.sol\":2448:2458  players[i] */\n      dup2\n      sload\n      dup2\n      lt\n      tag_92\n      jumpi\n      tag_93\n      tag_72\n      jump\t// in\n    tag_93:\n    tag_92:\n      swap1\n      0x00\n      mstore\n      keccak256(0x00, 0x20)\n      add\n      0x00\n      swap1\n      sload\n      swap1\n      0x0100\n      exp\n      swap1\n      div\n      0xffffffffffffffffffffffffffffffffffffffff\n      and\n        /* \"poker.sol\":2442:2459  price[players[i]] */\n      0xffffffffffffffffffffffffffffffffffffffff\n      and\n      0xffffffffffffffffffffffffffffffffffffffff\n      and\n      dup2\n      mstore\n      0x20\n      add\n      swap1\n      dup2\n      mstore\n      0x20\n      add\n      0x00\n      keccak256\n        /* \"poker.sol\":2442:2463  price[players[i]] = 0 */\n      dup2\n      swap1\n      sstore\n      pop\n        /* \"poker.sol\":2422:2425  i++ */\n      dup1\n      dup1\n      0x01\n      add\n      swap2\n      pop\n      pop\n        /* \"poker.sol\":2385:2475  for (uint i = 0; i < players.length; i++) {... */\n      jump(tag_89)\n    tag_90:\n      pop\n        /* \"poker.sol\":2488:2500  bool success */\n      0x00\n        /* \"poker.sol\":2506:2512  winner */\n      dup3\n        /* \"poker.sol\":2506:2517  winner.call */\n      0xffffffffffffffffffffffffffffffffffffffff\n      and\n        /* \"poker.sol\":2525:2531  amount */\n      dup3\n        /* \"poker.sol\":2506:2536  winner.call{value: amount}(\"\") */\n      mload(0x40)\n      tag_95\n      swap1\n      tag_96\n      jump\t// in\n    tag_95:\n      0x00\n      mload(0x40)\n      dup1\n      dup4\n      sub\n      dup2\n      dup6\n      dup8\n      gas\n      call\n      swap3\n      pop\n      pop\n      pop\n      returndatasize\n      dup1\n      0x00\n      dup2\n      eq\n      tag_99\n      jumpi\n      mload(0x40)\n      swap2\n      pop\n      and(add(returndatasize, 0x3f), not(0x1f))\n      dup3\n      add\n      0x40\n      mstore\n      returndatasize\n      dup3\n      mstore\n      returndatasize\n      0x00\n      0x20\n      dup5\n      add\n      returndatacopy\n      jump(tag_98)\n    tag_99:\n      0x60\n      swap2\n      pop\n    tag_98:\n      pop\n        /* \"poker.sol\":2487:2536  (bool success, ) = winner.call{value: amount}(\"\") */\n      pop\n      swap1\n      pop\n        /* \"poker.sol\":2555:2562  success */\n      dup1\n        /* \"poker.sol\":2547:2580  require(success, \"Payout failed\") */\n      tag_100\n      jumpi\n      mload(0x40)\n      0x08c379a000000000000000000000000000000000000000000000000000000000\n      dup2\n      mstore\n      0x04\n      add\n      tag_101\n      swap1\n      tag_102\n      jump\t// in\n    tag_101:\n      mload(0x40)\n      dup1\n      swap2\n      sub\n      swap1\n      revert\n    tag_100:\n        /* \"poker.sol\":2259:2588  {... */\n      pop\n      pop\n        /* \"poker.sol\":2207:2588  function payout(address winner) public onlyCroupier {... */\n      pop\n      jump\t// out\n        /* \"poker.sol\":84:101  uint public money */\n    tag_32:\n      sload(0x00)\n      dup2\n      jump\t// out\n        /* \"poker.sol\":755:853  function removePlayer(address player) public onlyCroupier {... */\n    tag_38:\n        /* \"poker.sol\":381:389  croupier */\n      0x01\n      0x00\n      swap1\n      sload\n      swap1\n      0x0100\n      exp\n      swap1\n      div\n      0xffffffffffffffffffffffffffffffffffffffff\n      and\n        /* \"poker.sol\":367:389  msg.sender == croupier */\n      0xffffffffffffffffffffffffffffffffffffffff\n      and\n        /* \"poker.sol\":367:377  msg.sender */\n      caller\n        /* \"poker.sol\":367:389  msg.sender == croupier */\n      0xffffffffffffffffffffffffffffffffffffffff\n      and\n      eq\n        /* \"poker.sol\":359:419  require(msg.sender == croupier, \"Only croupier can do this\") */\n      tag_104\n      jumpi\n      mload(0x40)\n      0x08c379a000000000000000000000000000000000000000000000000000000000\n      dup2\n      mstore\n      0x04\n      add\n      tag_105\n      swap1\n      tag_84\n      jump\t// in\n    tag_105:\n      mload(0x40)\n      dup1\n      swap2\n      sub\n      swap1\n      revert\n    tag_104:\n        /* \"poker.sol\":824:845  _removePlayer(player) */\n      tag_107\n        /* \"poker.sol\":838:844  player */\n      dup2\n        /* \"poker.sol\":824:837  _removePlayer */\n      tag_108\n        /* \"poker.sol\":824:845  _removePlayer(player) */\n      jump\t// in\n    tag_107:\n        /* \"poker.sol\":755:853  function removePlayer(address player) public onlyCroupier {... */\n      pop\n      jump\t// out\n        /* \"poker.sol\":108:131  address public croupier */\n    tag_41:\n      0x01\n      0x00\n      swap1\n      sload\n      swap1\n      0x0100\n      exp\n      swap1\n      div\n      0xffffffffffffffffffffffffffffffffffffffff\n      and\n      dup2\n      jump\t// out\n        /* \"poker.sol\":1362:1629  function getMaxPrice() public view returns (uint) {... */\n    tag_46:\n        /* \"poker.sol\":1406:1410  uint */\n      0x00\n        /* \"poker.sol\":1423:1431  uint max */\n      0x00\n        /* \"poker.sol\":1434:1435  0 */\n      0x00\n        /* \"poker.sol\":1423:1435  uint max = 0 */\n      swap1\n      pop\n        /* \"poker.sol\":1451:1457  uint i */\n      0x00\n        /* \"poker.sol\":1460:1461  0 */\n      0x00\n        /* \"poker.sol\":1451:1461  uint i = 0 */\n      swap1\n      pop\n        /* \"poker.sol\":1446:1601  for (uint i = 0; i < players.length; i++) {... */\n    tag_110:\n        /* \"poker.sol\":1467:1474  players */\n      0x02\n        /* \"poker.sol\":1467:1481  players.length */\n      dup1\n      sload\n      swap1\n      pop\n        /* \"poker.sol\":1463:1464  i */\n      dup2\n        /* \"poker.sol\":1463:1481  i < players.length */\n      lt\n        /* \"poker.sol\":1446:1601  for (uint i = 0; i < players.length; i++) {... */\n      iszero\n      tag_111\n      jumpi\n        /* \"poker.sol\":1527:1530  max */\n      dup2\n        /* \"poker.sol\":1507:1512  price */\n      0x04\n        /* \"poker.sol\":1507:1524  price[players[i]] */\n      0x00\n        /* \"poker.sol\":1513:1520  players */\n      0x02\n        /* \"poker.sol\":1521:1522  i */\n      dup5\n        /* \"poker.sol\":1513:1523  players[i] */\n      dup2\n      sload\n      dup2\n      lt\n      tag_113\n      jumpi\n      tag_114\n      tag_72\n      jump\t// in\n    tag_114:\n    tag_113:\n      swap1\n      0x00\n      mstore\n      keccak256(0x00, 0x20)\n      add\n      0x00\n      swap1\n      sload\n      swap1\n      0x0100\n      exp\n      swap1\n      div\n      0xffffffffffffffffffffffffffffffffffffffff\n      and\n        /* \"poker.sol\":1507:1524  price[players[i]] */\n      0xffffffffffffffffffffffffffffffffffffffff\n      and\n      0xffffffffffffffffffffffffffffffffffffffff\n      and\n      dup2\n      mstore\n      0x20\n      add\n      swap1\n      dup2\n      mstore\n      0x20\n      add\n      0x00\n      keccak256\n      sload\n        /* \"poker.sol\":1507:1530  price[players[i]] > max */\n      gt\n        /* \"poker.sol\":1503:1590  if (price[players[i]] > max) {... */\n      iszero\n      tag_116\n      jumpi\n        /* \"poker.sol\":1557:1562  price */\n      0x04\n        /* \"poker.sol\":1557:1574  price[players[i]] */\n      0x00\n        /* \"poker.sol\":1563:1570  players */\n      0x02\n        /* \"poker.sol\":1571:1572  i */\n      dup4\n        /* \"poker.sol\":1563:1573  players[i] */\n      dup2\n      sload\n      dup2\n      lt\n      tag_117\n      jumpi\n      tag_118\n      tag_72\n      jump\t// in\n    tag_118:\n    tag_117:\n      swap1\n      0x00\n      mstore\n      keccak256(0x00, 0x20)\n      add\n      0x00\n      swap1\n      sload\n      swap1\n      0x0100\n      exp\n      swap1\n      div\n      0xffffffffffffffffffffffffffffffffffffffff\n      and\n        /* \"poker.sol\":1557:1574  price[players[i]] */\n      0xffffffffffffffffffffffffffffffffffffffff\n      and\n      0xffffffffffffffffffffffffffffffffffffffff\n      and\n      dup2\n      mstore\n      0x20\n      add\n      swap1\n      dup2\n      mstore\n      0x20\n      add\n      0x00\n      keccak256\n      sload\n        /* \"poker.sol\":1551:1574  max = price[players[i]] */\n      swap2\n      pop\n        /* \"poker.sol\":1503:1590  if (price[players[i]] > max) {... */\n    tag_116:\n        /* \"poker.sol\":1483:1486  i++ */\n      dup1\n      dup1\n      0x01\n      add\n      swap2\n      pop\n      pop\n        /* \"poker.sol\":1446:1601  for (uint i = 0; i < players.length; i++) {... */\n      jump(tag_110)\n    tag_111:\n      pop\n        /* \"poker.sol\":1618:1621  max */\n      dup1\n        /* \"poker.sol\":1611:1621  return max */\n      swap2\n      pop\n      pop\n        /* \"poker.sol\":1362:1629  function getMaxPrice() public view returns (uint) {... */\n      swap1\n      jump\t// out\n        /* \"poker.sol\":1637:1898  function makeParlay() public payable onlyPlayer {... */\n    tag_49:\n        /* \"poker.sol\":488:496  isPlayer */\n      0x03\n        /* \"poker.sol\":488:508  isPlayer[msg.sender] */\n      0x00\n        /* \"poker.sol\":497:507  msg.sender */\n      caller\n        /* \"poker.sol\":488:508  isPlayer[msg.sender] */\n      0xffffffffffffffffffffffffffffffffffffffff\n      and\n      0xffffffffffffffffffffffffffffffffffffffff\n      and\n      dup2\n      mstore\n      0x20\n      add\n      swap1\n      dup2\n      mstore\n      0x20\n      add\n      0x00\n      keccak256\n      0x00\n      swap1\n      sload\n      swap1\n      0x0100\n      exp\n      swap1\n      div\n      0xff\n      and\n        /* \"poker.sol\":480:536  require(isPlayer[msg.sender], \"Only player can do this\") */\n      tag_121\n      jumpi\n      mload(0x40)\n      0x08c379a000000000000000000000000000000000000000000000000000000000\n      dup2\n      mstore\n      0x04\n      add\n      tag_122\n      swap1\n      tag_123\n      jump\t// in\n    tag_122:\n      mload(0x40)\n      dup1\n      swap2\n      sub\n      swap1\n      revert\n    tag_121:\n        /* \"poker.sol\":1696:1709  uint maxPrice */\n      0x00\n        /* \"poker.sol\":1712:1725  getMaxPrice() */\n      tag_125\n        /* \"poker.sol\":1712:1723  getMaxPrice */\n      tag_46\n        /* \"poker.sol\":1712:1725  getMaxPrice() */\n      jump\t// in\n    tag_125:\n        /* \"poker.sol\":1696:1725  uint maxPrice = getMaxPrice() */\n      swap1\n      pop\n        /* \"poker.sol\":1777:1785  maxPrice */\n      dup1\n        /* \"poker.sol\":1764:1773  msg.value */\n      callvalue\n        /* \"poker.sol\":1744:1749  price */\n      0x04\n        /* \"poker.sol\":1744:1761  price[msg.sender] */\n      0x00\n        /* \"poker.sol\":1750:1760  msg.sender */\n      caller\n        /* \"poker.sol\":1744:1761  price[msg.sender] */\n      0xffffffffffffffffffffffffffffffffffffffff\n      and\n      0xffffffffffffffffffffffffffffffffffffffff\n      and\n      dup2\n      mstore\n      0x20\n      add\n      swap1\n      dup2\n      mstore\n      0x20\n      add\n      0x00\n      keccak256\n      sload\n        /* \"poker.sol\":1744:1773  price[msg.sender] + msg.value */\n      tag_126\n      swap2\n      swap1\n      tag_127\n      jump\t// in\n    tag_126:\n        /* \"poker.sol\":1744:1785  price[msg.sender] + msg.value >= maxPrice */\n      lt\n      iszero\n        /* \"poker.sol\":1736:1820  require(price[msg.sender] + msg.value >= maxPrice, \"Parlay is lower than max price\") */\n      tag_128\n      jumpi\n      mload(0x40)\n      0x08c379a000000000000000000000000000000000000000000000000000000000\n      dup2\n      mstore\n      0x04\n      add\n      tag_129\n      swap1\n      tag_130\n      jump\t// in\n    tag_129:\n      mload(0x40)\n      dup1\n      swap2\n      sub\n      swap1\n      revert\n    tag_128:\n        /* \"poker.sol\":1852:1861  msg.value */\n      callvalue\n        /* \"poker.sol\":1831:1836  price */\n      0x04\n        /* \"poker.sol\":1831:1848  price[msg.sender] */\n      0x00\n        /* \"poker.sol\":1837:1847  msg.sender */\n      caller\n        /* \"poker.sol\":1831:1848  price[msg.sender] */\n      0xffffffffffffffffffffffffffffffffffffffff\n      and\n      0xffffffffffffffffffffffffffffffffffffffff\n      and\n      dup2\n      mstore\n      0x20\n      add\n      swap1\n      dup2\n      mstore\n      0x20\n      add\n      0x00\n      keccak256\n      0x00\n        /* \"poker.sol\":1831:1861  price[msg.sender] += msg.value */\n      dup3\n      dup3\n      sload\n      tag_131\n      swap2\n      swap1\n      tag_127\n      jump\t// in\n    tag_131:\n      swap3\n      pop\n      pop\n      dup2\n      swap1\n      sstore\n      pop\n        /* \"poker.sol\":1881:1890  msg.value */\n      callvalue\n        /* \"poker.sol\":1872:1877  money */\n      0x00\n      0x00\n        /* \"poker.sol\":1872:1890  money += msg.value */\n      dup3\n      dup3\n      sload\n      tag_132\n      swap2\n      swap1\n      tag_127\n      jump\t// in\n    tag_132:\n      swap3\n      pop\n      pop\n      dup2\n      swap1\n      sstore\n      pop\n        /* \"poker.sol\":1685:1898  {... */\n      pop\n        /* \"poker.sol\":1637:1898  function makeParlay() public payable onlyPlayer {... */\n      jump\t// out\n        /* \"poker.sol\":861:939  function pass() public onlyPlayer {... */\n    tag_52:\n        /* \"poker.sol\":488:496  isPlayer */\n      0x03\n        /* \"poker.sol\":488:508  isPlayer[msg.sender] */\n      0x00\n        /* \"poker.sol\":497:507  msg.sender */\n      caller\n        /* \"poker.sol\":488:508  isPlayer[msg.sender] */\n      0xffffffffffffffffffffffffffffffffffffffff\n      and\n      0xffffffffffffffffffffffffffffffffffffffff\n      and\n      dup2\n      mstore\n      0x20\n      add\n      swap1\n      dup2\n      mstore\n      0x20\n      add\n      0x00\n      keccak256\n      0x00\n      swap1\n      sload\n      swap1\n      0x0100\n      exp\n      swap1\n      div\n      0xff\n      and\n        /* \"poker.sol\":480:536  require(isPlayer[msg.sender], \"Only player can do this\") */\n      tag_134\n      jumpi\n      mload(0x40)\n      0x08c379a000000000000000000000000000000000000000000000000000000000\n      dup2\n      mstore\n      0x04\n      add\n      tag_135\n      swap1\n      tag_123\n      jump\t// in\n    tag_135:\n      mload(0x40)\n      dup1\n      swap2\n      sub\n      swap1\n      revert\n    tag_134:\n        /* \"poker.sol\":906:931  _removePlayer(msg.sender) */\n      tag_137\n        /* \"poker.sol\":920:930  msg.sender */\n      caller\n        /* \"poker.sol\":906:919  _removePlayer */\n      tag_108\n        /* \"poker.sol\":906:931  _removePlayer(msg.sender) */\n      jump\t// in\n    tag_137:\n        /* \"poker.sol\":861:939  function pass() public onlyPlayer {... */\n      jump\t// out\n        /* \"poker.sol\":216:253  mapping(address => uint) public price */\n    tag_56:\n      mstore(0x20, 0x04)\n      dup1\n      0x00\n      mstore\n      keccak256(0x00, 0x40)\n      0x00\n      swap2\n      pop\n      swap1\n      pop\n      sload\n      dup2\n      jump\t// out\n        /* \"poker.sol\":564:747  function addPlayer(address player) public onlyCroupier {... */\n    tag_61:\n        /* \"poker.sol\":381:389  croupier */\n      0x01\n      0x00\n      swap1\n      sload\n      swap1\n      0x0100\n      exp\n      swap1\n      div\n      0xffffffffffffffffffffffffffffffffffffffff\n      and\n        /* \"poker.sol\":367:389  msg.sender == croupier */\n      0xffffffffffffffffffffffffffffffffffffffff\n      and\n        /* \"poker.sol\":367:377  msg.sender */\n      caller\n        /* \"poker.sol\":367:389  msg.sender == croupier */\n      0xffffffffffffffffffffffffffffffffffffffff\n      and\n      eq\n        /* \"poker.sol\":359:419  require(msg.sender == croupier, \"Only croupier can do this\") */\n      tag_139\n      jumpi\n      mload(0x40)\n      0x08c379a000000000000000000000000000000000000000000000000000000000\n      dup2\n      mstore\n      0x04\n      add\n      tag_140\n      swap1\n      tag_84\n      jump\t// in\n    tag_140:\n      mload(0x40)\n      dup1\n      swap2\n      sub\n      swap1\n      revert\n    tag_139:\n        /* \"poker.sol\":639:647  isPlayer */\n      0x03\n        /* \"poker.sol\":639:655  isPlayer[player] */\n      0x00\n        /* \"poker.sol\":648:654  player */\n      dup3\n        /* \"poker.sol\":639:655  isPlayer[player] */\n      0xffffffffffffffffffffffffffffffffffffffff\n      and\n      0xffffffffffffffffffffffffffffffffffffffff\n      and\n      dup2\n      mstore\n      0x20\n      add\n      swap1\n      dup2\n      mstore\n      0x20\n      add\n      0x00\n      keccak256\n      0x00\n      swap1\n      sload\n      swap1\n      0x0100\n      exp\n      swap1\n      div\n      0xff\n      and\n        /* \"poker.sol\":638:655  !isPlayer[player] */\n      iszero\n        /* \"poker.sol\":630:674  require(!isPlayer[player], \"Already player\") */\n      tag_142\n      jumpi\n      mload(0x40)\n      0x08c379a000000000000000000000000000000000000000000000000000000000\n      dup2\n      mstore\n      0x04\n      add\n      tag_143\n      swap1\n      tag_144\n      jump\t// in\n    tag_143:\n      mload(0x40)\n      dup1\n      swap2\n      sub\n      swap1\n      revert\n    tag_142:\n        /* \"poker.sol\":704:708  true */\n      0x01\n        /* \"poker.sol\":685:693  isPlayer */\n      0x03\n        /* \"poker.sol\":685:701  isPlayer[player] */\n      0x00\n        /* \"poker.sol\":694:700  player */\n      dup4\n        /* \"poker.sol\":685:701  isPlayer[player] */\n      0xffffffffffffffffffffffffffffffffffffffff\n      and\n      0xffffffffffffffffffffffffffffffffffffffff\n      and\n      dup2\n      mstore\n      0x20\n      add\n      swap1\n      dup2\n      mstore\n      0x20\n      add\n      0x00\n      keccak256\n      0x00\n        /* \"poker.sol\":685:708  isPlayer[player] = true */\n      0x0100\n      exp\n      dup2\n      sload\n      dup2\n      0xff\n      mul\n      not\n      and\n      swap1\n      dup4\n      iszero\n      iszero\n      mul\n      or\n      swap1\n      sstore\n      pop\n        /* \"poker.sol\":719:726  players */\n      0x02\n        /* \"poker.sol\":732:738  player */\n      dup2\n        /* \"poker.sol\":719:739  players.push(player) */\n      swap1\n      dup1\n      0x01\n      dup2\n      sload\n      add\n      dup1\n      dup3\n      sstore\n      dup1\n      swap2\n      pop\n      pop\n      0x01\n      swap1\n      sub\n      swap1\n      0x00\n      mstore\n      keccak256(0x00, 0x20)\n      add\n      0x00\n      swap1\n      swap2\n      swap1\n      swap2\n      swap1\n      swap2\n      0x0100\n      exp\n      dup2\n      sload\n      dup2\n      0xffffffffffffffffffffffffffffffffffffffff\n      mul\n      not\n      and\n      swap1\n      dup4\n      0xffffffffffffffffffffffffffffffffffffffff\n      and\n      mul\n      or\n      swap1\n      sstore\n      pop\n        /* \"poker.sol\":564:747  function addPlayer(address player) public onlyCroupier {... */\n      pop\n      jump\t// out\n        /* \"poker.sol\":138:162  address[] public players */\n    tag_66:\n      0x02\n      dup2\n      dup2\n      sload\n      dup2\n      lt\n      tag_146\n      jumpi\n      0x00\n      dup1\n      revert\n    tag_146:\n      swap1\n      0x00\n      mstore\n      keccak256(0x00, 0x20)\n      add\n      0x00\n      swap2\n      pop\n      sload\n      swap1\n      0x0100\n      exp\n      swap1\n      div\n      0xffffffffffffffffffffffffffffffffffffffff\n      and\n      dup2\n      jump\t// out\n        /* \"poker.sol\":947:1354  function _removePlayer(address player) private {... */\n    tag_108:\n        /* \"poker.sol\":1013:1021  isPlayer */\n      0x03\n        /* \"poker.sol\":1013:1029  isPlayer[player] */\n      0x00\n        /* \"poker.sol\":1022:1028  player */\n      dup3\n        /* \"poker.sol\":1013:1029  isPlayer[player] */\n      0xffffffffffffffffffffffffffffffffffffffff\n      and\n      0xffffffffffffffffffffffffffffffffffffffff\n      and\n      dup2\n      mstore\n      0x20\n      add\n      swap1\n      dup2\n      mstore\n      0x20\n      add\n      0x00\n      keccak256\n      0x00\n      swap1\n      sload\n      swap1\n      0x0100\n      exp\n      swap1\n      div\n      0xff\n      and\n        /* \"poker.sol\":1005:1046  require(isPlayer[player], \"Not a player\") */\n      tag_149\n      jumpi\n      mload(0x40)\n      0x08c379a000000000000000000000000000000000000000000000000000000000\n      dup2\n      mstore\n      0x04\n      add\n      tag_150\n      swap1\n      tag_151\n      jump\t// in\n    tag_150:\n      mload(0x40)\n      dup1\n      swap2\n      sub\n      swap1\n      revert\n    tag_149:\n        /* \"poker.sol\":1076:1081  false */\n      0x00\n        /* \"poker.sol\":1057:1065  isPlayer */\n      0x03\n        /* \"poker.sol\":1057:1073  isPlayer[player] */\n      0x00\n        /* \"poker.sol\":1066:1072  player */\n      dup4\n        /* \"poker.sol\":1057:1073  isPlayer[player] */\n      0xffffffffffffffffffffffffffffffffffffffff\n      and\n      0xffffffffffffffffffffffffffffffffffffffff\n      and\n      dup2\n      mstore\n      0x20\n      add\n      swap1\n      dup2\n      mstore\n      0x20\n      add\n      0x00\n      keccak256\n      0x00\n        /* \"poker.sol\":1057:1081  isPlayer[player] = false */\n      0x0100\n      exp\n      dup2\n      sload\n      dup2\n      0xff\n      mul\n      not\n      and\n      swap1\n      dup4\n      iszero\n      iszero\n      mul\n      or\n      swap1\n      sstore\n      pop\n        /* \"poker.sol\":1108:1109  0 */\n      0x00\n        /* \"poker.sol\":1092:1097  price */\n      0x04\n        /* \"poker.sol\":1092:1105  price[player] */\n      0x00\n        /* \"poker.sol\":1098:1104  player */\n      dup4\n        /* \"poker.sol\":1092:1105  price[player] */\n      0xffffffffffffffffffffffffffffffffffffffff\n      and\n      0xffffffffffffffffffffffffffffffffffffffff\n      and\n      dup2\n      mstore\n      0x20\n      add\n      swap1\n      dup2\n      mstore\n      0x20\n      add\n      0x00\n      keccak256\n        /* \"poker.sol\":1092:1109  price[player] = 0 */\n      dup2\n      swap1\n      sstore\n      pop\n        /* \"poker.sol\":1127:1133  uint i */\n      0x00\n        /* \"poker.sol\":1136:1137  0 */\n      0x00\n        /* \"poker.sol\":1127:1137  uint i = 0 */\n      swap1\n      pop\n        /* \"poker.sol\":1122:1347  for (uint i = 0; i < players.length; i++) {... */\n    tag_152:\n        /* \"poker.sol\":1143:1150  players */\n      0x02\n        /* \"poker.sol\":1143:1157  players.length */\n      dup1\n      sload\n      swap1\n      pop\n        /* \"poker.sol\":1139:1140  i */\n      dup2\n        /* \"poker.sol\":1139:1157  i < players.length */\n      lt\n        /* \"poker.sol\":1122:1347  for (uint i = 0; i < players.length; i++) {... */\n      iszero\n      tag_153\n      jumpi\n        /* \"poker.sol\":1197:1203  player */\n      dup2\n        /* \"poker.sol\":1183:1203  players[i] == player */\n      0xffffffffffffffffffffffffffffffffffffffff\n      and\n        /* \"poker.sol\":1183:1190  players */\n      0x02\n        /* \"poker.sol\":1191:1192  i */\n      dup3\n        /* \"poker.sol\":1183:1193  players[i] */\n      dup2\n      sload\n      dup2\n      lt\n      tag_155\n      jumpi\n      tag_156\n      tag_72\n      jump\t// in\n    tag_156:\n    tag_155:\n      swap1\n      0x00\n      mstore\n      keccak256(0x00, 0x20)\n      add\n      0x00\n      swap1\n      sload\n      swap1\n      0x0100\n      exp\n      swap1\n      div\n      0xffffffffffffffffffffffffffffffffffffffff\n      and\n        /* \"poker.sol\":1183:1203  players[i] == player */\n      0xffffffffffffffffffffffffffffffffffffffff\n      and\n      sub\n        /* \"poker.sol\":1179:1336  if (players[i] == player) {... */\n      tag_158\n      jumpi\n        /* \"poker.sol\":1237:1244  players */\n      0x02\n        /* \"poker.sol\":1262:1263  1 */\n      0x01\n        /* \"poker.sol\":1245:1252  players */\n      0x02\n        /* \"poker.sol\":1245:1259  players.length */\n      dup1\n      sload\n      swap1\n      pop\n        /* \"poker.sol\":1245:1263  players.length - 1 */\n      tag_159\n      swap2\n      swap1\n      tag_160\n      jump\t// in\n    tag_159:\n        /* \"poker.sol\":1237:1264  players[players.length - 1] */\n      dup2\n      sload\n      dup2\n      lt\n      tag_161\n      jumpi\n      tag_162\n      tag_72\n      jump\t// in\n    tag_162:\n    tag_161:\n      swap1\n      0x00\n      mstore\n      keccak256(0x00, 0x20)\n      add\n      0x00\n      swap1\n      sload\n      swap1\n      0x0100\n      exp\n      swap1\n      div\n      0xffffffffffffffffffffffffffffffffffffffff\n      and\n        /* \"poker.sol\":1224:1231  players */\n      0x02\n        /* \"poker.sol\":1232:1233  i */\n      dup3\n        /* \"poker.sol\":1224:1234  players[i] */\n      dup2\n      sload\n      dup2\n      lt\n      tag_164\n      jumpi\n      tag_165\n      tag_72\n      jump\t// in\n    tag_165:\n    tag_164:\n      swap1\n      0x00\n      mstore\n      keccak256(0x00, 0x20)\n      add\n      0x00\n        /* \"poker.sol\":1224:1264  players[i] = players[players.length - 1] */\n      0x0100\n      exp\n      dup2\n      sload\n      dup2\n      0xffffffffffffffffffffffffffffffffffffffff\n      mul\n      not\n      and\n      swap1\n      dup4\n      0xffffffffffffffffffffffffffffffffffffffff\n      and\n      mul\n      or\n      swap1\n      sstore\n      pop\n        /* \"poker.sol\":1283:1290  players */\n      0x02\n        /* \"poker.sol\":1283:1296  players.pop() */\n      dup1\n      sload\n      dup1\n      tag_167\n      jumpi\n      tag_168\n      tag_169\n      jump\t// in\n    tag_168:\n    tag_167:\n      0x01\n      swap1\n      sub\n      dup2\n      dup2\n      swap1\n      0x00\n      mstore\n      keccak256(0x00, 0x20)\n      add\n      exp(0x0100, 0x00)\n      dup2\n      sload\n      swap1\n      0xffffffffffffffffffffffffffffffffffffffff\n      mul\n      not\n      and\n      swap1\n      sstore\n      swap1\n      sstore\n        /* \"poker.sol\":1315:1320  break */\n      jump(tag_153)\n        /* \"poker.sol\":1179:1336  if (players[i] == player) {... */\n    tag_158:\n        /* \"poker.sol\":1159:1162  i++ */\n      dup1\n      dup1\n      0x01\n      add\n      swap2\n      pop\n      pop\n        /* \"poker.sol\":1122:1347  for (uint i = 0; i < players.length; i++) {... */\n      jump(tag_152)\n    tag_153:\n      pop\n        /* \"poker.sol\":947:1354  function _removePlayer(address player) private {... */\n      pop\n      jump\t// out\n        /* \"#utility.yul\":88:205   */\n    tag_172:\n        /* \"#utility.yul\":197:198   */\n      0x00\n        /* \"#utility.yul\":194:195   */\n      0x00\n        /* \"#utility.yul\":187:199   */\n      revert\n        /* \"#utility.yul\":334:460   */\n    tag_174:\n        /* \"#utility.yul\":371:378   */\n      0x00\n        /* \"#utility.yul\":411:453   */\n      0xffffffffffffffffffffffffffffffffffffffff\n        /* \"#utility.yul\":404:409   */\n      dup3\n        /* \"#utility.yul\":400:454   */\n      and\n        /* \"#utility.yul\":389:454   */\n      swap1\n      pop\n        /* \"#utility.yul\":334:460   */\n      swap2\n      swap1\n      pop\n      jump\t// out\n        /* \"#utility.yul\":466:562   */\n    tag_175:\n        /* \"#utility.yul\":503:510   */\n      0x00\n        /* \"#utility.yul\":532:556   */\n      tag_210\n        /* \"#utility.yul\":550:555   */\n      dup3\n        /* \"#utility.yul\":532:556   */\n      tag_174\n      jump\t// in\n    tag_210:\n        /* \"#utility.yul\":521:556   */\n      swap1\n      pop\n        /* \"#utility.yul\":466:562   */\n      swap2\n      swap1\n      pop\n      jump\t// out\n        /* \"#utility.yul\":568:690   */\n    tag_176:\n        /* \"#utility.yul\":641:665   */\n      tag_212\n        /* \"#utility.yul\":659:664   */\n      dup2\n        /* \"#utility.yul\":641:665   */\n      tag_175\n      jump\t// in\n    tag_212:\n        /* \"#utility.yul\":634:639   */\n      dup2\n        /* \"#utility.yul\":631:666   */\n      eq\n        /* \"#utility.yul\":621:684   */\n      tag_213\n      jumpi\n        /* \"#utility.yul\":680:681   */\n      0x00\n        /* \"#utility.yul\":677:678   */\n      0x00\n        /* \"#utility.yul\":670:682   */\n      revert\n        /* \"#utility.yul\":621:684   */\n    tag_213:\n        /* \"#utility.yul\":568:690   */\n      pop\n      jump\t// out\n        /* \"#utility.yul\":696:835   */\n    tag_177:\n        /* \"#utility.yul\":742:747   */\n      0x00\n        /* \"#utility.yul\":780:786   */\n      dup2\n        /* \"#utility.yul\":767:787   */\n      calldataload\n        /* \"#utility.yul\":758:787   */\n      swap1\n      pop\n        /* \"#utility.yul\":796:829   */\n      tag_215\n        /* \"#utility.yul\":823:828   */\n      dup2\n        /* \"#utility.yul\":796:829   */\n      tag_176\n      jump\t// in\n    tag_215:\n        /* \"#utility.yul\":696:835   */\n      swap3\n      swap2\n      pop\n      pop\n      jump\t// out\n        /* \"#utility.yul\":841:1170   */\n    tag_18:\n        /* \"#utility.yul\":900:906   */\n      0x00\n        /* \"#utility.yul\":949:951   */\n      0x20\n        /* \"#utility.yul\":937:946   */\n      dup3\n        /* \"#utility.yul\":928:935   */\n      dup5\n        /* \"#utility.yul\":924:947   */\n      sub\n        /* \"#utility.yul\":920:952   */\n      slt\n        /* \"#utility.yul\":917:1036   */\n      iszero\n      tag_217\n      jumpi\n        /* \"#utility.yul\":955:1034   */\n      tag_218\n      tag_172\n      jump\t// in\n    tag_218:\n        /* \"#utility.yul\":917:1036   */\n    tag_217:\n        /* \"#utility.yul\":1075:1076   */\n      0x00\n        /* \"#utility.yul\":1100:1153   */\n      tag_219\n        /* \"#utility.yul\":1145:1152   */\n      dup5\n        /* \"#utility.yul\":1136:1142   */\n      dup3\n        /* \"#utility.yul\":1125:1134   */\n      dup6\n        /* \"#utility.yul\":1121:1143   */\n      add\n        /* \"#utility.yul\":1100:1153   */\n      tag_177\n      jump\t// in\n    tag_219:\n        /* \"#utility.yul\":1090:1153   */\n      swap2\n      pop\n        /* \"#utility.yul\":1046:1163   */\n      pop\n        /* \"#utility.yul\":841:1170   */\n      swap3\n      swap2\n      pop\n      pop\n      jump\t// out\n        /* \"#utility.yul\":1176:1266   */\n    tag_178:\n        /* \"#utility.yul\":1210:1217   */\n      0x00\n        /* \"#utility.yul\":1253:1258   */\n      dup2\n        /* \"#utility.yul\":1246:1259   */\n      iszero\n        /* \"#utility.yul\":1239:1260   */\n      iszero\n        /* \"#utility.yul\":1228:1260   */\n      swap1\n      pop\n        /* \"#utility.yul\":1176:1266   */\n      swap2\n      swap1\n      pop\n      jump\t// out\n        /* \"#utility.yul\":1272:1381   */\n    tag_179:\n        /* \"#utility.yul\":1353:1374   */\n      tag_222\n        /* \"#utility.yul\":1368:1373   */\n      dup2\n        /* \"#utility.yul\":1353:1374   */\n      tag_178\n      jump\t// in\n    tag_222:\n        /* \"#utility.yul\":1348:1351   */\n      dup3\n        /* \"#utility.yul\":1341:1375   */\n      mstore\n        /* \"#utility.yul\":1272:1381   */\n      pop\n      pop\n      jump\t// out\n        /* \"#utility.yul\":1387:1597   */\n    tag_21:\n        /* \"#utility.yul\":1474:1478   */\n      0x00\n        /* \"#utility.yul\":1512:1514   */\n      0x20\n        /* \"#utility.yul\":1501:1510   */\n      dup3\n        /* \"#utility.yul\":1497:1515   */\n      add\n        /* \"#utility.yul\":1489:1515   */\n      swap1\n      pop\n        /* \"#utility.yul\":1525:1590   */\n      tag_224\n        /* \"#utility.yul\":1587:1588   */\n      0x00\n        /* \"#utility.yul\":1576:1585   */\n      dup4\n        /* \"#utility.yul\":1572:1589   */\n      add\n        /* \"#utility.yul\":1563:1569   */\n      dup5\n        /* \"#utility.yul\":1525:1590   */\n      tag_179\n      jump\t// in\n    tag_224:\n        /* \"#utility.yul\":1387:1597   */\n      swap3\n      swap2\n      pop\n      pop\n      jump\t// out\n        /* \"#utility.yul\":1603:1680   */\n    tag_180:\n        /* \"#utility.yul\":1640:1647   */\n      0x00\n        /* \"#utility.yul\":1669:1674   */\n      dup2\n        /* \"#utility.yul\":1658:1674   */\n      swap1\n      pop\n        /* \"#utility.yul\":1603:1680   */\n      swap2\n      swap1\n      pop\n      jump\t// out\n        /* \"#utility.yul\":1686:1804   */\n    tag_181:\n        /* \"#utility.yul\":1773:1797   */\n      tag_227\n        /* \"#utility.yul\":1791:1796   */\n      dup2\n        /* \"#utility.yul\":1773:1797   */\n      tag_180\n      jump\t// in\n    tag_227:\n        /* \"#utility.yul\":1768:1771   */\n      dup3\n        /* \"#utility.yul\":1761:1798   */\n      mstore\n        /* \"#utility.yul\":1686:1804   */\n      pop\n      pop\n      jump\t// out\n        /* \"#utility.yul\":1810:2032   */\n    tag_34:\n        /* \"#utility.yul\":1903:1907   */\n      0x00\n        /* \"#utility.yul\":1941:1943   */\n      0x20\n        /* \"#utility.yul\":1930:1939   */\n      dup3\n        /* \"#utility.yul\":1926:1944   */\n      add\n        /* \"#utility.yul\":1918:1944   */\n      swap1\n      pop\n        /* \"#utility.yul\":1954:2025   */\n      tag_229\n        /* \"#utility.yul\":2022:2023   */\n      0x00\n        /* \"#utility.yul\":2011:2020   */\n      dup4\n        /* \"#utility.yul\":2007:2024   */\n      add\n        /* \"#utility.yul\":1998:2004   */\n      dup5\n        /* \"#utility.yul\":1954:2025   */\n      tag_181\n      jump\t// in\n    tag_229:\n        /* \"#utility.yul\":1810:2032   */\n      swap3\n      swap2\n      pop\n      pop\n      jump\t// out\n        /* \"#utility.yul\":2038:2156   */\n    tag_182:\n        /* \"#utility.yul\":2125:2149   */\n      tag_231\n        /* \"#utility.yul\":2143:2148   */\n      dup2\n        /* \"#utility.yul\":2125:2149   */\n      tag_175\n      jump\t// in\n    tag_231:\n        /* \"#utility.yul\":2120:2123   */\n      dup3\n        /* \"#utility.yul\":2113:2150   */\n      mstore\n        /* \"#utility.yul\":2038:2156   */\n      pop\n      pop\n      jump\t// out\n        /* \"#utility.yul\":2162:2384   */\n    tag_43:\n        /* \"#utility.yul\":2255:2259   */\n      0x00\n        /* \"#utility.yul\":2293:2295   */\n      0x20\n        /* \"#utility.yul\":2282:2291   */\n      dup3\n        /* \"#utility.yul\":2278:2296   */\n      add\n        /* \"#utility.yul\":2270:2296   */\n      swap1\n      pop\n        /* \"#utility.yul\":2306:2377   */\n      tag_233\n        /* \"#utility.yul\":2374:2375   */\n      0x00\n        /* \"#utility.yul\":2363:2372   */\n      dup4\n        /* \"#utility.yul\":2359:2376   */\n      add\n        /* \"#utility.yul\":2350:2356   */\n      dup5\n        /* \"#utility.yul\":2306:2377   */\n      tag_182\n      jump\t// in\n    tag_233:\n        /* \"#utility.yul\":2162:2384   */\n      swap3\n      swap2\n      pop\n      pop\n      jump\t// out\n        /* \"#utility.yul\":2390:2512   */\n    tag_183:\n        /* \"#utility.yul\":2463:2487   */\n      tag_235\n        /* \"#utility.yul\":2481:2486   */\n      dup2\n        /* \"#utility.yul\":2463:2487   */\n      tag_180\n      jump\t// in\n    tag_235:\n        /* \"#utility.yul\":2456:2461   */\n      dup2\n        /* \"#utility.yul\":2453:2488   */\n      eq\n        /* \"#utility.yul\":2443:2506   */\n      tag_236\n      jumpi\n        /* \"#utility.yul\":2502:2503   */\n      0x00\n        /* \"#utility.yul\":2499:2500   */\n      0x00\n        /* \"#utility.yul\":2492:2504   */\n      revert\n        /* \"#utility.yul\":2443:2506   */\n    tag_236:\n        /* \"#utility.yul\":2390:2512   */\n      pop\n      jump\t// out\n        /* \"#utility.yul\":2518:2657   */\n    tag_184:\n        /* \"#utility.yul\":2564:2569   */\n      0x00\n        /* \"#utility.yul\":2602:2608   */\n      dup2\n        /* \"#utility.yul\":2589:2609   */\n      calldataload\n        /* \"#utility.yul\":2580:2609   */\n      swap1\n      pop\n        /* \"#utility.yul\":2618:2651   */\n      tag_238\n        /* \"#utility.yul\":2645:2650   */\n      dup2\n        /* \"#utility.yul\":2618:2651   */\n      tag_183\n      jump\t// in\n    tag_238:\n        /* \"#utility.yul\":2518:2657   */\n      swap3\n      swap2\n      pop\n      pop\n      jump\t// out\n        /* \"#utility.yul\":2663:2992   */\n    tag_65:\n        /* \"#utility.yul\":2722:2728   */\n      0x00\n        /* \"#utility.yul\":2771:2773   */\n      0x20\n        /* \"#utility.yul\":2759:2768   */\n      dup3\n        /* \"#utility.yul\":2750:2757   */\n      dup5\n        /* \"#utility.yul\":2746:2769   */\n      sub\n        /* \"#utility.yul\":2742:2774   */\n      slt\n        /* \"#utility.yul\":2739:2858   */\n      iszero\n      tag_240\n      jumpi\n        /* \"#utility.yul\":2777:2856   */\n      tag_241\n      tag_172\n      jump\t// in\n    tag_241:\n        /* \"#utility.yul\":2739:2858   */\n    tag_240:\n        /* \"#utility.yul\":2897:2898   */\n      0x00\n        /* \"#utility.yul\":2922:2975   */\n      tag_242\n        /* \"#utility.yul\":2967:2974   */\n      dup5\n        /* \"#utility.yul\":2958:2964   */\n      dup3\n        /* \"#utility.yul\":2947:2956   */\n      dup6\n        /* \"#utility.yul\":2943:2965   */\n      add\n        /* \"#utility.yul\":2922:2975   */\n      tag_184\n      jump\t// in\n    tag_242:\n        /* \"#utility.yul\":2912:2975   */\n      swap2\n      pop\n        /* \"#utility.yul\":2868:2985   */\n      pop\n        /* \"#utility.yul\":2663:2992   */\n      swap3\n      swap2\n      pop\n      pop\n      jump\t// out\n        /* \"#utility.yul\":2998:3178   */\n    tag_72:\n        /* \"#utility.yul\":3046:3123   */\n      0x4e487b7100000000000000000000000000000000000000000000000000000000\n        /* \"#utility.yul\":3043:3044   */\n      0x00\n        /* \"#utility.yul\":3036:3124   */\n      mstore\n        /* \"#utility.yul\":3143:3147   */\n      0x32\n        /* \"#utility.yul\":3140:3141   */\n      0x04\n        /* \"#utility.yul\":3133:3148   */\n      mstore\n        /* \"#utility.yul\":3167:3171   */\n      0x24\n        /* \"#utility.yul\":3164:3165   */\n      0x00\n        /* \"#utility.yul\":3157:3172   */\n      revert\n        /* \"#utility.yul\":3184:3353   */\n    tag_185:\n        /* \"#utility.yul\":3268:3279   */\n      0x00\n        /* \"#utility.yul\":3302:3308   */\n      dup3\n        /* \"#utility.yul\":3297:3300   */\n      dup3\n        /* \"#utility.yul\":3290:3309   */\n      mstore\n        /* \"#utility.yul\":3342:3346   */\n      0x20\n        /* \"#utility.yul\":3337:3340   */\n      dup3\n        /* \"#utility.yul\":3333:3347   */\n      add\n        /* \"#utility.yul\":3318:3347   */\n      swap1\n      pop\n        /* \"#utility.yul\":3184:3353   */\n      swap3\n      swap2\n      pop\n      pop\n      jump\t// out\n        /* \"#utility.yul\":3359:3534   */\n    tag_186:\n        /* \"#utility.yul\":3499:3526   */\n      0x4f6e6c792063726f75706965722063616e20646f207468697300000000000000\n        /* \"#utility.yul\":3495:3496   */\n      0x00\n        /* \"#utility.yul\":3487:3493   */\n      dup3\n        /* \"#utility.yul\":3483:3497   */\n      add\n        /* \"#utility.yul\":3476:3527   */\n      mstore\n        /* \"#utility.yul\":3359:3534   */\n      pop\n      jump\t// out\n        /* \"#utility.yul\":3540:3906   */\n    tag_187:\n        /* \"#utility.yul\":3682:3685   */\n      0x00\n        /* \"#utility.yul\":3703:3770   */\n      tag_247\n        /* \"#utility.yul\":3767:3769   */\n      0x19\n        /* \"#utility.yul\":3762:3765   */\n      dup4\n        /* \"#utility.yul\":3703:3770   */\n      tag_185\n      jump\t// in\n    tag_247:\n        /* \"#utility.yul\":3696:3770   */\n      swap2\n      pop\n        /* \"#utility.yul\":3779:3872   */\n      tag_248\n        /* \"#utility.yul\":3868:3871   */\n      dup3\n        /* \"#utility.yul\":3779:3872   */\n      tag_186\n      jump\t// in\n    tag_248:\n        /* \"#utility.yul\":3897:3899   */\n      0x20\n        /* \"#utility.yul\":3892:3895   */\n      dup3\n        /* \"#utility.yul\":3888:3900   */\n      add\n        /* \"#utility.yul\":3881:3900   */\n      swap1\n      pop\n        /* \"#utility.yul\":3540:3906   */\n      swap2\n      swap1\n      pop\n      jump\t// out\n        /* \"#utility.yul\":3912:4331   */\n    tag_84:\n        /* \"#utility.yul\":4078:4082   */\n      0x00\n        /* \"#utility.yul\":4116:4118   */\n      0x20\n        /* \"#utility.yul\":4105:4114   */\n      dup3\n        /* \"#utility.yul\":4101:4119   */\n      add\n        /* \"#utility.yul\":4093:4119   */\n      swap1\n      pop\n        /* \"#utility.yul\":4165:4174   */\n      dup2\n        /* \"#utility.yul\":4159:4163   */\n      dup2\n        /* \"#utility.yul\":4155:4175   */\n      sub\n        /* \"#utility.yul\":4151:4152   */\n      0x00\n        /* \"#utility.yul\":4140:4149   */\n      dup4\n        /* \"#utility.yul\":4136:4153   */\n      add\n        /* \"#utility.yul\":4129:4176   */\n      mstore\n        /* \"#utility.yul\":4193:4324   */\n      tag_250\n        /* \"#utility.yul\":4319:4323   */\n      dup2\n        /* \"#utility.yul\":4193:4324   */\n      tag_187\n      jump\t// in\n    tag_250:\n        /* \"#utility.yul\":4185:4324   */\n      swap1\n      pop\n        /* \"#utility.yul\":3912:4331   */\n      swap2\n      swap1\n      pop\n      jump\t// out\n        /* \"#utility.yul\":4337:4510   */\n    tag_188:\n        /* \"#utility.yul\":4477:4502   */\n      0x57696e6e6572206d757374206265206120706c61796572000000000000000000\n        /* \"#utility.yul\":4473:4474   */\n      0x00\n        /* \"#utility.yul\":4465:4471   */\n      dup3\n        /* \"#utility.yul\":4461:4475   */\n      add\n        /* \"#utility.yul\":4454:4503   */\n      mstore\n        /* \"#utility.yul\":4337:4510   */\n      pop\n      jump\t// out\n        /* \"#utility.yul\":4516:4882   */\n    tag_189:\n        /* \"#utility.yul\":4658:4661   */\n      0x00\n        /* \"#utility.yul\":4679:4746   */\n      tag_253\n        /* \"#utility.yul\":4743:4745   */\n      0x17\n        /* \"#utility.yul\":4738:4741   */\n      dup4\n        /* \"#utility.yul\":4679:4746   */\n      tag_185\n      jump\t// in\n    tag_253:\n        /* \"#utility.yul\":4672:4746   */\n      swap2\n      pop\n        /* \"#utility.yul\":4755:4848   */\n      tag_254\n        /* \"#utility.yul\":4844:4847   */\n      dup3\n        /* \"#utility.yul\":4755:4848   */\n      tag_188\n      jump\t// in\n    tag_254:\n        /* \"#utility.yul\":4873:4875   */\n      0x20\n        /* \"#utility.yul\":4868:4871   */\n      dup3\n        /* \"#utility.yul\":4864:4876   */\n      add\n        /* \"#utility.yul\":4857:4876   */\n      swap1\n      pop\n        /* \"#utility.yul\":4516:4882   */\n      swap2\n      swap1\n      pop\n      jump\t// out\n        /* \"#utility.yul\":4888:5307   */\n    tag_88:\n        /* \"#utility.yul\":5054:5058   */\n      0x00\n        /* \"#utility.yul\":5092:5094   */\n      0x20\n        /* \"#utility.yul\":5081:5090   */\n      dup3\n        /* \"#utility.yul\":5077:5095   */\n      add\n        /* \"#utility.yul\":5069:5095   */\n      swap1\n      pop\n        /* \"#utility.yul\":5141:5150   */\n      dup2\n        /* \"#utility.yul\":5135:5139   */\n      dup2\n        /* \"#utility.yul\":5131:5151   */\n      sub\n        /* \"#utility.yul\":5127:5128   */\n      0x00\n        /* \"#utility.yul\":5116:5125   */\n      dup4\n        /* \"#utility.yul\":5112:5129   */\n      add\n        /* \"#utility.yul\":5105:5152   */\n      mstore\n        /* \"#utility.yul\":5169:5300   */\n      tag_256\n        /* \"#utility.yul\":5295:5299   */\n      dup2\n        /* \"#utility.yul\":5169:5300   */\n      tag_189\n      jump\t// in\n    tag_256:\n        /* \"#utility.yul\":5161:5300   */\n      swap1\n      pop\n        /* \"#utility.yul\":4888:5307   */\n      swap2\n      swap1\n      pop\n      jump\t// out\n        /* \"#utility.yul\":5313:5460   */\n    tag_190:\n        /* \"#utility.yul\":5414:5425   */\n      0x00\n        /* \"#utility.yul\":5451:5454   */\n      dup2\n        /* \"#utility.yul\":5436:5454   */\n      swap1\n      pop\n        /* \"#utility.yul\":5313:5460   */\n      swap3\n      swap2\n      pop\n      pop\n      jump\t// out\n        /* \"#utility.yul\":5466:5580   */\n    tag_191:\n      pop\n      jump\t// out\n        /* \"#utility.yul\":5586:5984   */\n    tag_192:\n        /* \"#utility.yul\":5745:5748   */\n      0x00\n        /* \"#utility.yul\":5766:5849   */\n      tag_260\n        /* \"#utility.yul\":5847:5848   */\n      0x00\n        /* \"#utility.yul\":5842:5845   */\n      dup4\n        /* \"#utility.yul\":5766:5849   */\n      tag_190\n      jump\t// in\n    tag_260:\n        /* \"#utility.yul\":5759:5849   */\n      swap2\n      pop\n        /* \"#utility.yul\":5858:5951   */\n      tag_261\n        /* \"#utility.yul\":5947:5950   */\n      dup3\n        /* \"#utility.yul\":5858:5951   */\n      tag_191\n      jump\t// in\n    tag_261:\n        /* \"#utility.yul\":5976:5977   */\n      0x00\n        /* \"#utility.yul\":5971:5974   */\n      dup3\n        /* \"#utility.yul\":5967:5978   */\n      add\n        /* \"#utility.yul\":5960:5978   */\n      swap1\n      pop\n        /* \"#utility.yul\":5586:5984   */\n      swap2\n      swap1\n      pop\n      jump\t// out\n        /* \"#utility.yul\":5990:6369   */\n    tag_96:\n        /* \"#utility.yul\":6174:6177   */\n      0x00\n        /* \"#utility.yul\":6196:6343   */\n      tag_263\n        /* \"#utility.yul\":6339:6342   */\n      dup3\n        /* \"#utility.yul\":6196:6343   */\n      tag_192\n      jump\t// in\n    tag_263:\n        /* \"#utility.yul\":6189:6343   */\n      swap2\n      pop\n        /* \"#utility.yul\":6360:6363   */\n      dup2\n        /* \"#utility.yul\":6353:6363   */\n      swap1\n      pop\n        /* \"#utility.yul\":5990:6369   */\n      swap2\n      swap1\n      pop\n      jump\t// out\n        /* \"#utility.yul\":6375:6538   */\n    tag_193:\n        /* \"#utility.yul\":6515:6530   */\n      0x5061796f7574206661696c656400000000000000000000000000000000000000\n        /* \"#utility.yul\":6511:6512   */\n      0x00\n        /* \"#utility.yul\":6503:6509   */\n      dup3\n        /* \"#utility.yul\":6499:6513   */\n      add\n        /* \"#utility.yul\":6492:6531   */\n      mstore\n        /* \"#utility.yul\":6375:6538   */\n      pop\n      jump\t// out\n        /* \"#utility.yul\":6544:6910   */\n    tag_194:\n        /* \"#utility.yul\":6686:6689   */\n      0x00\n        /* \"#utility.yul\":6707:6774   */\n      tag_266\n        /* \"#utility.yul\":6771:6773   */\n      0x0d\n        /* \"#utility.yul\":6766:6769   */\n      dup4\n        /* \"#utility.yul\":6707:6774   */\n      tag_185\n      jump\t// in\n    tag_266:\n        /* \"#utility.yul\":6700:6774   */\n      swap2\n      pop\n        /* \"#utility.yul\":6783:6876   */\n      tag_267\n        /* \"#utility.yul\":6872:6875   */\n      dup3\n        /* \"#utility.yul\":6783:6876   */\n      tag_193\n      jump\t// in\n    tag_267:\n        /* \"#utility.yul\":6901:6903   */\n      0x20\n        /* \"#utility.yul\":6896:6899   */\n      dup3\n        /* \"#utility.yul\":6892:6904   */\n      add\n        /* \"#utility.yul\":6885:6904   */\n      swap1\n      pop\n        /* \"#utility.yul\":6544:6910   */\n      swap2\n      swap1\n      pop\n      jump\t// out\n        /* \"#utility.yul\":6916:7335   */\n    tag_102:\n        /* \"#utility.yul\":7082:7086   */\n      0x00\n        /* \"#utility.yul\":7120:7122   */\n      0x20\n        /* \"#utility.yul\":7109:7118   */\n      dup3\n        /* \"#utility.yul\":7105:7123   */\n      add\n        /* \"#utility.yul\":7097:7123   */\n      swap1\n      pop\n        /* \"#utility.yul\":7169:7178   */\n      dup2\n        /* \"#utility.yul\":7163:7167   */\n      dup2\n        /* \"#utility.yul\":7159:7179   */\n      sub\n        /* \"#utility.yul\":7155:7156   */\n      0x00\n        /* \"#utility.yul\":7144:7153   */\n      dup4\n        /* \"#utility.yul\":7140:7157   */\n      add\n        /* \"#utility.yul\":7133:7180   */\n      mstore\n        /* \"#utility.yul\":7197:7328   */\n      tag_269\n        /* \"#utility.yul\":7323:7327   */\n      dup2\n        /* \"#utility.yul\":7197:7328   */\n      tag_194\n      jump\t// in\n    tag_269:\n        /* \"#utility.yul\":7189:7328   */\n      swap1\n      pop\n        /* \"#utility.yul\":6916:7335   */\n      swap2\n      swap1\n      pop\n      jump\t// out\n        /* \"#utility.yul\":7341:7514   */\n    tag_195:\n        /* \"#utility.yul\":7481:7506   */\n      0x4f6e6c7920706c617965722063616e20646f2074686973000000000000000000\n        /* \"#utility.yul\":7477:7478   */\n      0x00\n        /* \"#utility.yul\":7469:7475   */\n      dup3\n        /* \"#utility.yul\":7465:7479   */\n      add\n        /* \"#utility.yul\":7458:7507   */\n      mstore\n        /* \"#utility.yul\":7341:7514   */\n      pop\n      jump\t// out\n        /* \"#utility.yul\":7520:7886   */\n    tag_196:\n        /* \"#utility.yul\":7662:7665   */\n      0x00\n        /* \"#utility.yul\":7683:7750   */\n      tag_272\n        /* \"#utility.yul\":7747:7749   */\n      0x17\n        /* \"#utility.yul\":7742:7745   */\n      dup4\n        /* \"#utility.yul\":7683:7750   */\n      tag_185\n      jump\t// in\n    tag_272:\n        /* \"#utility.yul\":7676:7750   */\n      swap2\n      pop\n        /* \"#utility.yul\":7759:7852   */\n      tag_273\n        /* \"#utility.yul\":7848:7851   */\n      dup3\n        /* \"#utility.yul\":7759:7852   */\n      tag_195\n      jump\t// in\n    tag_273:\n        /* \"#utility.yul\":7877:7879   */\n      0x20\n        /* \"#utility.yul\":7872:7875   */\n      dup3\n        /* \"#utility.yul\":7868:7880   */\n      add\n        /* \"#utility.yul\":7861:7880   */\n      swap1\n      pop\n        /* \"#utility.yul\":7520:7886   */\n      swap2\n      swap1\n      pop\n      jump\t// out\n        /* \"#utility.yul\":7892:8311   */\n    tag_123:\n        /* \"#utility.yul\":8058:8062   */\n      0x00\n        /* \"#utility.yul\":8096:8098   */\n      0x20\n        /* \"#utility.yul\":8085:8094   */\n      dup3\n        /* \"#utility.yul\":8081:8099   */\n      add\n        /* \"#utility.yul\":8073:8099   */\n      swap1\n      pop\n        /* \"#utility.yul\":8145:8154   */\n      dup2\n        /* \"#utility.yul\":8139:8143   */\n      dup2\n        /* \"#utility.yul\":8135:8155   */\n      sub\n        /* \"#utility.yul\":8131:8132   */\n      0x00\n        /* \"#utility.yul\":8120:8129   */\n      dup4\n        /* \"#utility.yul\":8116:8133   */\n      add\n        /* \"#utility.yul\":8109:8156   */\n      mstore\n        /* \"#utility.yul\":8173:8304   */\n      tag_275\n        /* \"#utility.yul\":8299:8303   */\n      dup2\n        /* \"#utility.yul\":8173:8304   */\n      tag_196\n      jump\t// in\n    tag_275:\n        /* \"#utility.yul\":8165:8304   */\n      swap1\n      pop\n        /* \"#utility.yul\":7892:8311   */\n      swap2\n      swap1\n      pop\n      jump\t// out\n        /* \"#utility.yul\":8317:8497   */\n    tag_197:\n        /* \"#utility.yul\":8365:8442   */\n      0x4e487b7100000000000000000000000000000000000000000000000000000000\n        /* \"#utility.yul\":8362:8363   */\n      0x00\n        /* \"#utility.yul\":8355:8443   */\n      mstore\n        /* \"#utility.yul\":8462:8466   */\n      0x11\n        /* \"#utility.yul\":8459:8460   */\n      0x04\n        /* \"#utility.yul\":8452:8467   */\n      mstore\n        /* \"#utility.yul\":8486:8490   */\n      0x24\n        /* \"#utility.yul\":8483:8484   */\n      0x00\n        /* \"#utility.yul\":8476:8491   */\n      revert\n        /* \"#utility.yul\":8503:8694   */\n    tag_127:\n        /* \"#utility.yul\":8543:8546   */\n      0x00\n        /* \"#utility.yul\":8562:8582   */\n      tag_278\n        /* \"#utility.yul\":8580:8581   */\n      dup3\n        /* \"#utility.yul\":8562:8582   */\n      tag_180\n      jump\t// in\n    tag_278:\n        /* \"#utility.yul\":8557:8582   */\n      swap2\n      pop\n        /* \"#utility.yul\":8596:8616   */\n      tag_279\n        /* \"#utility.yul\":8614:8615   */\n      dup4\n        /* \"#utility.yul\":8596:8616   */\n      tag_180\n      jump\t// in\n    tag_279:\n        /* \"#utility.yul\":8591:8616   */\n      swap3\n      pop\n        /* \"#utility.yul\":8639:8640   */\n      dup3\n        /* \"#utility.yul\":8636:8637   */\n      dup3\n        /* \"#utility.yul\":8632:8641   */\n      add\n        /* \"#utility.yul\":8625:8641   */\n      swap1\n      pop\n        /* \"#utility.yul\":8660:8663   */\n      dup1\n        /* \"#utility.yul\":8657:8658   */\n      dup3\n        /* \"#utility.yul\":8654:8664   */\n      gt\n        /* \"#utility.yul\":8651:8687   */\n      iszero\n      tag_280\n      jumpi\n        /* \"#utility.yul\":8667:8685   */\n      tag_281\n      tag_197\n      jump\t// in\n    tag_281:\n        /* \"#utility.yul\":8651:8687   */\n    tag_280:\n        /* \"#utility.yul\":8503:8694   */\n      swap3\n      swap2\n      pop\n      pop\n      jump\t// out\n        /* \"#utility.yul\":8700:8880   */\n    tag_198:\n        /* \"#utility.yul\":8840:8872   */\n      0x5061726c6179206973206c6f776572207468616e206d61782070726963650000\n        /* \"#utility.yul\":8836:8837   */\n      0x00\n        /* \"#utility.yul\":8828:8834   */\n      dup3\n        /* \"#utility.yul\":8824:8838   */\n      add\n        /* \"#utility.yul\":8817:8873   */\n      mstore\n        /* \"#utility.yul\":8700:8880   */\n      pop\n      jump\t// out\n        /* \"#utility.yul\":8886:9252   */\n    tag_199:\n        /* \"#utility.yul\":9028:9031   */\n      0x00\n        /* \"#utility.yul\":9049:9116   */\n      tag_284\n        /* \"#utility.yul\":9113:9115   */\n      0x1e\n        /* \"#utility.yul\":9108:9111   */\n      dup4\n        /* \"#utility.yul\":9049:9116   */\n      tag_185\n      jump\t// in\n    tag_284:\n        /* \"#utility.yul\":9042:9116   */\n      swap2\n      pop\n        /* \"#utility.yul\":9125:9218   */\n      tag_285\n        /* \"#utility.yul\":9214:9217   */\n      dup3\n        /* \"#utility.yul\":9125:9218   */\n      tag_198\n      jump\t// in\n    tag_285:\n        /* \"#utility.yul\":9243:9245   */\n      0x20\n        /* \"#utility.yul\":9238:9241   */\n      dup3\n        /* \"#utility.yul\":9234:9246   */\n      add\n        /* \"#utility.yul\":9227:9246   */\n      swap1\n      pop\n        /* \"#utility.yul\":8886:9252   */\n      swap2\n      swap1\n      pop\n      jump\t// out\n        /* \"#utility.yul\":9258:9677   */\n    tag_130:\n        /* \"#utility.yul\":9424:9428   */\n      0x00\n        /* \"#utility.yul\":9462:9464   */\n      0x20\n        /* \"#utility.yul\":9451:9460   */\n      dup3\n        /* \"#utility.yul\":9447:9465   */\n      add\n        /* \"#utility.yul\":9439:9465   */\n      swap1\n      pop\n        /* \"#utility.yul\":9511:9520   */\n      dup2\n        /* \"#utility.yul\":9505:9509   */\n      dup2\n        /* \"#utility.yul\":9501:9521   */\n      sub\n        /* \"#utility.yul\":9497:9498   */\n      0x00\n        /* \"#utility.yul\":9486:9495   */\n      dup4\n        /* \"#utility.yul\":9482:9499   */\n      add\n        /* \"#utility.yul\":9475:9522   */\n      mstore\n        /* \"#utility.yul\":9539:9670   */\n      tag_287\n        /* \"#utility.yul\":9665:9669   */\n      dup2\n        /* \"#utility.yul\":9539:9670   */\n      tag_199\n      jump\t// in\n    tag_287:\n        /* \"#utility.yul\":9531:9670   */\n      swap1\n      pop\n        /* \"#utility.yul\":9258:9677   */\n      swap2\n      swap1\n      pop\n      jump\t// out\n        /* \"#utility.yul\":9683:9847   */\n    tag_200:\n        /* \"#utility.yul\":9823:9839   */\n      0x416c726561647920706c61796572000000000000000000000000000000000000\n        /* \"#utility.yul\":9819:9820   */\n      0x00\n        /* \"#utility.yul\":9811:9817   */\n      dup3\n        /* \"#utility.yul\":9807:9821   */\n      add\n        /* \"#utility.yul\":9800:9840   */\n      mstore\n        /* \"#utility.yul\":9683:9847   */\n      pop\n      jump\t// out\n        /* \"#utility.yul\":9853:10219   */\n    tag_201:\n        /* \"#utility.yul\":9995:9998   */\n      0x00\n        /* \"#utility.yul\":10016:10083   */\n      tag_290\n        /* \"#utility.yul\":10080:10082   */\n      0x0e\n        /* \"#utility.yul\":10075:10078   */\n      dup4\n        /* \"#utility.yul\":10016:10083   */\n      tag_185\n      jump\t// in\n    tag_290:\n        /* \"#utility.yul\":10009:10083   */\n      swap2\n      pop\n        /* \"#utility.yul\":10092:10185   */\n      tag_291\n        /* \"#utility.yul\":10181:10184   */\n      dup3\n        /* \"#utility.yul\":10092:10185   */\n      tag_200\n      jump\t// in\n    tag_291:\n        /* \"#utility.yul\":10210:10212   */\n      0x20\n        /* \"#utility.yul\":10205:10208   */\n      dup3\n        /* \"#utility.yul\":10201:10213   */\n      add\n        /* \"#utility.yul\":10194:10213   */\n      swap1\n      pop\n        /* \"#utility.yul\":9853:10219   */\n      swap2\n      swap1\n      pop\n      jump\t// out\n        /* \"#utility.yul\":10225:10644   */\n    tag_144:\n        /* \"#utility.yul\":10391:10395   */\n      0x00\n        /* \"#utility.yul\":10429:10431   */\n      0x20\n        /* \"#utility.yul\":10418:10427   */\n      dup3\n        /* \"#utility.yul\":10414:10432   */\n      add\n        /* \"#utility.yul\":10406:10432   */\n      swap1\n      pop\n        /* \"#utility.yul\":10478:10487   */\n      dup2\n        /* \"#utility.yul\":10472:10476   */\n      dup2\n        /* \"#utility.yul\":10468:10488   */\n      sub\n        /* \"#utility.yul\":10464:10465   */\n      0x00\n        /* \"#utility.yul\":10453:10462   */\n      dup4\n        /* \"#utility.yul\":10449:10466   */\n      add\n        /* \"#utility.yul\":10442:10489   */\n      mstore\n        /* \"#utility.yul\":10506:10637   */\n      tag_293\n        /* \"#utility.yul\":10632:10636   */\n      dup2\n        /* \"#utility.yul\":10506:10637   */\n      tag_201\n      jump\t// in\n    tag_293:\n        /* \"#utility.yul\":10498:10637   */\n      swap1\n      pop\n        /* \"#utility.yul\":10225:10644   */\n      swap2\n      swap1\n      pop\n      jump\t// out\n        /* \"#utility.yul\":10650:10812   */\n    tag_202:\n        /* \"#utility.yul\":10790:10804   */\n      0x4e6f74206120706c617965720000000000000000000000000000000000000000\n        /* \"#utility.yul\":10786:10787   */\n      0x00\n        /* \"#utility.yul\":10778:10784   */\n      dup3\n        /* \"#utility.yul\":10774:10788   */\n      add\n        /* \"#utility.yul\":10767:10805   */\n      mstore\n        /* \"#utility.yul\":10650:10812   */\n      pop\n      jump\t// out\n        /* \"#utility.yul\":10818:11184   */\n    tag_203:\n        /* \"#utility.yul\":10960:10963   */\n      0x00\n        /* \"#utility.yul\":10981:11048   */\n      tag_296\n        /* \"#utility.yul\":11045:11047   */\n      0x0c\n        /* \"#utility.yul\":11040:11043   */\n      dup4\n        /* \"#utility.yul\":10981:11048   */\n      tag_185\n      jump\t// in\n    tag_296:\n        /* \"#utility.yul\":10974:11048   */\n      swap2\n      pop\n        /* \"#utility.yul\":11057:11150   */\n      tag_297\n        /* \"#utility.yul\":11146:11149   */\n      dup3\n        /* \"#utility.yul\":11057:11150   */\n      tag_202\n      jump\t// in\n    tag_297:\n        /* \"#utility.yul\":11175:11177   */\n      0x20\n        /* \"#utility.yul\":11170:11173   */\n      dup3\n        /* \"#utility.yul\":11166:11178   */\n      add\n        /* \"#utility.yul\":11159:11178   */\n      swap1\n      pop\n        /* \"#utility.yul\":10818:11184   */\n      swap2\n      swap1\n      pop\n      jump\t// out\n        /* \"#utility.yul\":11190:11609   */\n    tag_151:\n        /* \"#utility.yul\":11356:11360   */\n      0x00\n        /* \"#utility.yul\":11394:11396   */\n      0x20\n        /* \"#utility.yul\":11383:11392   */\n      dup3\n        /* \"#utility.yul\":11379:11397   */\n      add\n        /* \"#utility.yul\":11371:11397   */\n      swap1\n      pop\n        /* \"#utility.yul\":11443:11452   */\n      dup2\n        /* \"#utility.yul\":11437:11441   */\n      dup2\n        /* \"#utility.yul\":11433:11453   */\n      sub\n        /* \"#utility.yul\":11429:11430   */\n      0x00\n        /* \"#utility.yul\":11418:11427   */\n      dup4\n        /* \"#utility.yul\":11414:11431   */\n      add\n        /* \"#utility.yul\":11407:11454   */\n      mstore\n        /* \"#utility.yul\":11471:11602   */\n      tag_299\n        /* \"#utility.yul\":11597:11601   */\n      dup2\n        /* \"#utility.yul\":11471:11602   */\n      tag_203\n      jump\t// in\n    tag_299:\n        /* \"#utility.yul\":11463:11602   */\n      swap1\n      pop\n        /* \"#utility.yul\":11190:11609   */\n      swap2\n      swap1\n      pop\n      jump\t// out\n        /* \"#utility.yul\":11615:11809   */\n    tag_160:\n        /* \"#utility.yul\":11655:11659   */\n      0x00\n        /* \"#utility.yul\":11675:11695   */\n      tag_301\n        /* \"#utility.yul\":11693:11694   */\n      dup3\n        /* \"#utility.yul\":11675:11695   */\n      tag_180\n      jump\t// in\n    tag_301:\n        /* \"#utility.yul\":11670:11695   */\n      swap2\n      pop\n        /* \"#utility.yul\":11709:11729   */\n      tag_302\n        /* \"#utility.yul\":11727:11728   */\n      dup4\n        /* \"#utility.yul\":11709:11729   */\n      tag_180\n      jump\t// in\n    tag_302:\n        /* \"#utility.yul\":11704:11729   */\n      swap3\n      pop\n        /* \"#utility.yul\":11753:11754   */\n      dup3\n        /* \"#utility.yul\":11750:11751   */\n      dup3\n        /* \"#utility.yul\":11746:11755   */\n      sub\n        /* \"#utility.yul\":11738:11755   */\n      swap1\n      pop\n        /* \"#utility.yul\":11777:11778   */\n      dup2\n        /* \"#utility.yul\":11771:11775   */\n      dup2\n        /* \"#utility.yul\":11768:11779   */\n      gt\n        /* \"#utility.yul\":11765:11802   */\n      iszero\n      tag_303\n      jumpi\n        /* \"#utility.yul\":11782:11800   */\n      tag_304\n      tag_197\n      jump\t// in\n    tag_304:\n        /* \"#utility.yul\":11765:11802   */\n    tag_303:\n        /* \"#utility.yul\":11615:11809   */\n      swap3\n      swap2\n      pop\n      pop\n      jump\t// out\n        /* \"#utility.yul\":11815:11995   */\n    tag_169:\n        /* \"#utility.yul\":11863:11940   */\n      0x4e487b7100000000000000000000000000000000000000000000000000000000\n        /* \"#utility.yul\":11860:11861   */\n      0x00\n        /* \"#utility.yul\":11853:11941   */\n      mstore\n        /* \"#utility.yul\":11960:11964   */\n      0x31\n        /* \"#utility.yul\":11957:11958   */\n      0x04\n        /* \"#utility.yul\":11950:11965   */\n      mstore\n        /* \"#utility.yul\":11984:11988   */\n      0x24\n        /* \"#utility.yul\":11981:11982   */\n      0x00\n        /* \"#utility.yul\":11974:11989   */\n      revert\n\n    auxdata: 0xa264697066735822122096b1d2ee8487dd63f45970b8ba8d40da7ee556b11ac8832d1fa142607a334d9464736f6c63430008220033\n}\n",
				"bytecode": {
					"linkReferences": {},
					"object": "6080604052348015600e575f5ffd5b503360015f6101000a81548173ffffffffffffffffffffffffffffffffffffffff021916908373ffffffffffffffffffffffffffffffffffffffff1602179055506114f08061005c5f395ff3fe6080604052600436106100a6575f3560e01c806382d8dff61161006357806382d8dff6146101b45780639fe6f59c146101de578063a7a1ed72146101e8578063aea91078146101fe578063b1275f9a1461023a578063f71d96cb14610262576100a6565b806309c95e10146100aa5780630b6df43a146100e65780630b7e9c44146101105780634ddd108a146101385780635bb12a1a146101625780636b5c5f391461018a575b5f5ffd5b3480156100b5575f5ffd5b506100d060048036038101906100cb9190610f98565b61029e565b6040516100dd9190610fdd565b60405180910390f35b3480156100f1575f5ffd5b506100fa6102bb565b6040516101079190610fdd565b60405180910390f35b34801561011b575f5ffd5b5061013660048036038101906101319190610f98565b610400565b005b348015610143575f5ffd5b5061014c61066d565b604051610159919061100e565b60405180910390f35b34801561016d575f5ffd5b5061018860048036038101906101839190610f98565b610672565b005b348015610195575f5ffd5b5061019e61070d565b6040516101ab9190611036565b60405180910390f35b3480156101bf575f5ffd5b506101c8610732565b6040516101d5919061100e565b60405180910390f35b6101e661085a565b005b3480156101f3575f5ffd5b506101fc6109e6565b005b348015610209575f5ffd5b50610224600480360381019061021f9190610f98565b610a7a565b604051610231919061100e565b60405180910390f35b348015610245575f5ffd5b50610260600480360381019061025b9190610f98565b610a8f565b005b34801561026d575f5ffd5b5061028860048036038101906102839190611079565b610c60565b6040516102959190611036565b60405180910390f35b6003602052805f5260405f205f915054906101000a900460ff1681565b5f5f600280549050036102d157600190506103fd565b5f60045f60025f815481106102e9576102e86110a4565b5b905f5260205f20015f9054906101000a900473ffffffffffffffffffffffffffffffffffffffff1673ffffffffffffffffffffffffffffffffffffffff1673ffffffffffffffffffffffffffffffffffffffff1681526020019081526020015f205490505f600190505b6002805490508110156103f6578160045f60028481548110610378576103776110a4565b5b905f5260205f20015f9054906101000a900473ffffffffffffffffffffffffffffffffffffffff1673ffffffffffffffffffffffffffffffffffffffff1673ffffffffffffffffffffffffffffffffffffffff1681526020019081526020015f2054146103e9575f925050506103fd565b8080600101915050610353565b5060019150505b90565b60015f9054906101000a900473ffffffffffffffffffffffffffffffffffffffff1673ffffffffffffffffffffffffffffffffffffffff163373ffffffffffffffffffffffffffffffffffffffff161461048f576040517f08c379a00000000000000000000000000000000000000000000000000000000081526004016104869061112b565b60405180910390fd5b60035f8273ffffffffffffffffffffffffffffffffffffffff1673ffffffffffffffffffffffffffffffffffffffff1681526020019081526020015f205f9054906101000a900460ff16610518576040517f08c379a000000000000000000000000000000000000000000000000000000000815260040161050f90611193565b60405180910390fd5b5f5f5490505f5f819055505f5f90505b6002805490508110156105bf575f60045f6002848154811061054d5761054c6110a4565b5b905f5260205f20015f9054906101000a900473ffffffffffffffffffffffffffffffffffffffff1673ffffffffffffffffffffffffffffffffffffffff1673ffffffffffffffffffffffffffffffffffffffff1681526020019081526020015f20819055508080600101915050610528565b505f8273ffffffffffffffffffffffffffffffffffffffff16826040516105e5906111de565b5f6040518083038185875af1925050503d805f811461061f576040519150601f19603f3d011682016040523d82523d5f602084013e610624565b606091505b5050905080610668576040517f08c379a000000000000000000000000000000000000000000000000000000000815260040161065f9061123c565b60405180910390fd5b505050565b5f5481565b60015f9054906101000a900473ffffffffffffffffffffffffffffffffffffffff1673ffffffffffffffffffffffffffffffffffffffff163373ffffffffffffffffffffffffffffffffffffffff1614610701576040517f08c379a00000000000000000000000000000000000000000000000000000000081526004016106f89061112b565b60405180910390fd5b61070a81610c9b565b50565b60015f9054906101000a900473ffffffffffffffffffffffffffffffffffffffff1681565b5f5f5f90505f5f90505b600280549050811015610852578160045f60028481548110610761576107606110a4565b5b905f5260205f20015f9054906101000a900473ffffffffffffffffffffffffffffffffffffffff1673ffffffffffffffffffffffffffffffffffffffff1673ffffffffffffffffffffffffffffffffffffffff1681526020019081526020015f205411156108455760045f600283815481106107e0576107df6110a4565b5b905f5260205f20015f9054906101000a900473ffffffffffffffffffffffffffffffffffffffff1673ffffffffffffffffffffffffffffffffffffffff1673ffffffffffffffffffffffffffffffffffffffff1681526020019081526020015f205491505b808060010191505061073c565b508091505090565b60035f3373ffffffffffffffffffffffffffffffffffffffff1673ffffffffffffffffffffffffffffffffffffffff1681526020019081526020015f205f9054906101000a900460ff166108e3576040517f08c379a00000000000000000000000000000000000000000000000000000000081526004016108da906112a4565b60405180910390fd5b5f6108ec610732565b9050803460045f3373ffffffffffffffffffffffffffffffffffffffff1673ffffffffffffffffffffffffffffffffffffffff1681526020019081526020015f205461093891906112ef565b1015610979576040517f08c379a00000000000000000000000000000000000000000000000000000000081526004016109709061136c565b60405180910390fd5b3460045f3373ffffffffffffffffffffffffffffffffffffffff1673ffffffffffffffffffffffffffffffffffffffff1681526020019081526020015f205f8282546109c591906112ef565b92505081905550345f5f8282546109dc91906112ef565b9250508190555050565b60035f3373ffffffffffffffffffffffffffffffffffffffff1673ffffffffffffffffffffffffffffffffffffffff1681526020019081526020015f205f9054906101000a900460ff16610a6f576040517f08c379a0000000000000000000000000000000000000000000000000000000008152600401610a66906112a4565b60405180910390fd5b610a7833610c9b565b565b6004602052805f5260405f205f915090505481565b60015f9054906101000a900473ffffffffffffffffffffffffffffffffffffffff1673ffffffffffffffffffffffffffffffffffffffff163373ffffffffffffffffffffffffffffffffffffffff1614610b1e576040517f08c379a0000000000000000000000000000000000000000000000000000000008152600401610b159061112b565b60405180910390fd5b60035f8273ffffffffffffffffffffffffffffffffffffffff1673ffffffffffffffffffffffffffffffffffffffff1681526020019081526020015f205f9054906101000a900460ff1615610ba8576040517f08c379a0000000000000000000000000000000000000000000000000000000008152600401610b9f906113d4565b60405180910390fd5b600160035f8373ffffffffffffffffffffffffffffffffffffffff1673ffffffffffffffffffffffffffffffffffffffff1681526020019081526020015f205f6101000a81548160ff021916908315150217905550600281908060018154018082558091505060019003905f5260205f20015f9091909190916101000a81548173ffffffffffffffffffffffffffffffffffffffff021916908373ffffffffffffffffffffffffffffffffffffffff16021790555050565b60028181548110610c6f575f80fd5b905f5260205f20015f915054906101000a900473ffffffffffffffffffffffffffffffffffffffff1681565b60035f8273ffffffffffffffffffffffffffffffffffffffff1673ffffffffffffffffffffffffffffffffffffffff1681526020019081526020015f205f9054906101000a900460ff16610d24576040517f08c379a0000000000000000000000000000000000000000000000000000000008152600401610d1b9061143c565b60405180910390fd5b5f60035f8373ffffffffffffffffffffffffffffffffffffffff1673ffffffffffffffffffffffffffffffffffffffff1681526020019081526020015f205f6101000a81548160ff0219169083151502179055505f60045f8373ffffffffffffffffffffffffffffffffffffffff1673ffffffffffffffffffffffffffffffffffffffff1681526020019081526020015f20819055505f5f90505b600280549050811015610f36578173ffffffffffffffffffffffffffffffffffffffff1660028281548110610df757610df66110a4565b5b905f5260205f20015f9054906101000a900473ffffffffffffffffffffffffffffffffffffffff1673ffffffffffffffffffffffffffffffffffffffff1603610f295760026001600280549050610e4e919061145a565b81548110610e5f57610e5e6110a4565b5b905f5260205f20015f9054906101000a900473ffffffffffffffffffffffffffffffffffffffff1660028281548110610e9b57610e9a6110a4565b5b905f5260205f20015f6101000a81548173ffffffffffffffffffffffffffffffffffffffff021916908373ffffffffffffffffffffffffffffffffffffffff1602179055506002805480610ef257610ef161148d565b5b600190038181905f5260205f20015f6101000a81549073ffffffffffffffffffffffffffffffffffffffff02191690559055610f36565b8080600101915050610dbf565b5050565b5f5ffd5b5f73ffffffffffffffffffffffffffffffffffffffff82169050919050565b5f610f6782610f3e565b9050919050565b610f7781610f5d565b8114610f81575f5ffd5b50565b5f81359050610f9281610f6e565b92915050565b5f60208284031215610fad57610fac610f3a565b5b5f610fba84828501610f84565b91505092915050565b5f8115159050919050565b610fd781610fc3565b82525050565b5f602082019050610ff05f830184610fce565b92915050565b5f819050919050565b61100881610ff6565b82525050565b5f6020820190506110215f830184610fff565b92915050565b61103081610f5d565b82525050565b5f6020820190506110495f830184611027565b92915050565b61105881610ff6565b8114611062575f5ffd5b50565b5f813590506110738161104f565b92915050565b5f6020828403121561108e5761108d610f3a565b5b5f61109b84828501611065565b91505092915050565b7f4e487b71000000000000000000000000000000000000000000000000000000005f52603260045260245ffd5b5f82825260208201905092915050565b7f4f6e6c792063726f75706965722063616e20646f2074686973000000000000005f82015250565b5f6111156019836110d1565b9150611120826110e1565b602082019050919050565b5f6020820190508181035f83015261114281611109565b9050919050565b7f57696e6e6572206d757374206265206120706c617965720000000000000000005f82015250565b5f61117d6017836110d1565b915061118882611149565b602082019050919050565b5f6020820190508181035f8301526111aa81611171565b9050919050565b5f81905092915050565b50565b5f6111c95f836111b1565b91506111d4826111bb565b5f82019050919050565b5f6111e8826111be565b9150819050919050565b7f5061796f7574206661696c6564000000000000000000000000000000000000005f82015250565b5f611226600d836110d1565b9150611231826111f2565b602082019050919050565b5f6020820190508181035f8301526112538161121a565b9050919050565b7f4f6e6c7920706c617965722063616e20646f20746869730000000000000000005f82015250565b5f61128e6017836110d1565b91506112998261125a565b602082019050919050565b5f6020820190508181035f8301526112bb81611282565b9050919050565b7f4e487b71000000000000000000000000000000000000000000000000000000005f52601160045260245ffd5b5f6112f982610ff6565b915061130483610ff6565b925082820190508082111561131c5761131b6112c2565b5b92915050565b7f5061726c6179206973206c6f776572207468616e206d617820707269636500005f82015250565b5f611356601e836110d1565b915061136182611322565b602082019050919050565b5f6020820190508181035f8301526113838161134a565b9050919050565b7f416c726561647920706c617965720000000000000000000000000000000000005f82015250565b5f6113be600e836110d1565b91506113c98261138a565b602082019050919050565b5f6020820190508181035f8301526113eb816113b2565b9050919050565b7f4e6f74206120706c6179657200000000000000000000000000000000000000005f82015250565b5f611426600c836110d1565b9150611431826113f2565b602082019050919050565b5f6020820190508181035f8301526114538161141a565b9050919050565b5f61146482610ff6565b915061146f83610ff6565b9250828203905081811115611487576114866112c2565b5b92915050565b7f4e487b71000000000000000000000000000000000000000000000000000000005f52603160045260245ffdfea264697066735822122096b1d2ee8487dd63f45970b8ba8d40da7ee556b11ac8832d1fa142607a334d9464736f6c63430008220033",
					"opcodes": "PUSH1 0x80 PUSH1 0x40 MSTORE CALLVALUE DUP1 ISZERO PUSH1 0xE JUMPI PUSH0 PUSH0 REVERT JUMPDEST POP CALLER PUSH1 0x1 PUSH0 PUSH2 0x100 EXP DUP2 SLOAD DUP2 PUSH20 0xFFFFFFFFFFFFFFFFFFFFFFFFFFFFFFFFFFFFFFFF MUL NOT AND SWAP1 DUP4 PUSH20 0xFFFFFFFFFFFFFFFFFFFFFFFFFFFFFFFFFFFFFFFF AND MUL OR SWAP1 SSTORE POP PUSH2 0x14F0 DUP1 PUSH2 0x5C PUSH0 CODECOPY PUSH0 RETURN INVALID PUSH1 0x80 PUSH1 0x40 MSTORE PUSH1 0x4 CALLDATASIZE LT PUSH2 0xA6 JUMPI PUSH0 CALLDATALOAD PUSH1 0xE0 SHR DUP1 PUSH4 0x82D8DFF6 GT PUSH2 0x63 JUMPI DUP1 PUSH4 0x82D8DFF6 EQ PUSH2 0x1B4 JUMPI DUP1 PUSH4 0x9FE6F59C EQ PUSH2 0x1DE JUMPI DUP1 PUSH4 0xA7A1ED72 EQ PUSH2 0x1E8 JUMPI DUP1 PUSH4 0xAEA91078 EQ PUSH2 0x1FE JUMPI DUP1 PUSH4 0xB1275F9A EQ PUSH2 0x23A JUMPI DUP1 PUSH4 0xF71D96CB EQ PUSH2 0x262 JUMPI PUSH2 0xA6 JUMP JUMPDEST DUP1 PUSH4 0x9C95E10 EQ PUSH2 0xAA JUMPI DUP1 PUSH4 0xB6DF43A EQ PUSH2 0xE6 JUMPI DUP1 PUSH4 0xB7E9C44 EQ PUSH2 0x110 JUMPI DUP1 PUSH4 0x4DDD108A EQ PUSH2 0x138 JUMPI DUP1 PUSH4 0x5BB12A1A EQ PUSH2 0x162 JUMPI DUP1 PUSH4 0x6B5C5F39 EQ PUSH2 0x18A JUMPI JUMPDEST PUSH0 PUSH0 REVERT JUMPDEST CALLVALUE DUP1 ISZERO PUSH2 0xB5 JUMPI PUSH0 PUSH0 REVERT JUMPDEST POP PUSH2 0xD0 PUSH1 0x4 DUP1 CALLDATASIZE SUB DUP2 ADD SWAP1 PUSH2 0xCB SWAP2 SWAP1 PUSH2 0xF98 JUMP JUMPDEST PUSH2 0x29E JUMP JUMPDEST PUSH1 0x40 MLOAD PUSH2 0xDD SWAP2 SWAP1 PUSH2 0xFDD JUMP JUMPDEST PUSH1 0x40 MLOAD DUP1 SWAP2 SUB SWAP1 RETURN JUMPDEST CALLVALUE DUP1 ISZERO PUSH2 0xF1 JUMPI PUSH0 PUSH0 REVERT JUMPDEST POP PUSH2 0xFA PUSH2 0x2BB JUMP JUMPDEST PUSH1 0x40 MLOAD PUSH2 0x107 SWAP2 SWAP1 PUSH2 0xFDD JUMP JUMPDEST PUSH1 0x40 MLOAD DUP1 SWAP2 SUB SWAP1 RETURN JUMPDEST CALLVALUE DUP1 ISZERO PUSH2 0x11B JUMPI PUSH0 PUSH0 REVERT JUMPDEST POP PUSH2 0x136 PUSH1 0x4 DUP1 CALLDATASIZE SUB DUP2 ADD SWAP1 PUSH2 0x131 SWAP2 SWAP1 PUSH2 0xF98 JUMP JUMPDEST PUSH2 0x400 JUMP JUMPDEST STOP JUMPDEST CALLVALUE DUP1 ISZERO PUSH2 0x143 JUMPI PUSH0 PUSH0 REVERT JUMPDEST POP PUSH2 0x14C PUSH2 0x66D JUMP JUMPDEST PUSH1 0x40 MLOAD PUSH2 0x159 SWAP2 SWAP1 PUSH2 0x100E JUMP JUMPDEST PUSH1 0x40 MLOAD DUP1 SWAP2 SUB SWAP1 RETURN JUMPDEST CALLVALUE DUP1 ISZERO PUSH2 0x16D JUMPI PUSH0 PUSH0 REVERT JUMPDEST POP PUSH2 0x188 PUSH1 0x4 DUP1 CALLDATASIZE SUB DUP2 ADD SWAP1 PUSH2 0x183 SWAP2 SWAP1 PUSH2 0xF98 JUMP JUMPDEST PUSH2 0x672 JUMP JUMPDEST STOP JUMPDEST CALLVALUE DUP1 ISZERO PUSH2 0x195 JUMPI PUSH0 PUSH0 REVERT JUMPDEST POP PUSH2 0x19E PUSH2 0x70D JUMP JUMPDEST PUSH1 0x40 MLOAD PUSH2 0x1AB SWAP2 SWAP1 PUSH2 0x1036 JUMP JUMPDEST PUSH1 0x40 MLOAD DUP1 SWAP2 SUB SWAP1 RETURN JUMPDEST CALLVALUE DUP1 ISZERO PUSH2 0x1BF JUMPI PUSH0 PUSH0 REVERT JUMPDEST POP PUSH2 0x1C8 PUSH2 0x732 JUMP JUMPDEST PUSH1 0x40 MLOAD PUSH2 0x1D5 SWAP2 SWAP1 PUSH2 0x100E JUMP JUMPDEST PUSH1 0x40 MLOAD DUP1 SWAP2 SUB SWAP1 RETURN JUMPDEST PUSH2 0x1E6 PUSH2 0x85A JUMP JUMPDEST STOP JUMPDEST CALLVALUE DUP1 ISZERO PUSH2 0x1F3 JUMPI PUSH0 PUSH0 REVERT JUMPDEST POP PUSH2 0x1FC PUSH2 0x9E6 JUMP JUMPDEST STOP JUMPDEST CALLVALUE DUP1 ISZERO PUSH2 0x209 JUMPI PUSH0 PUSH0 REVERT JUMPDEST POP PUSH2 0x224 PUSH1 0x4 DUP1 CALLDATASIZE SUB DUP2 ADD SWAP1 PUSH2 0x21F SWAP2 SWAP1 PUSH2 0xF98 JUMP JUMPDEST PUSH2 0xA7A JUMP JUMPDEST PUSH1 0x40 MLOAD PUSH2 0x231 SWAP2 SWAP1 PUSH2 0x100E JUMP JUMPDEST PUSH1 0x40 MLOAD DUP1 SWAP2 SUB SWAP1 RETURN JUMPDEST CALLVALUE DUP1 ISZERO PUSH2 0x245 JUMPI PUSH0 PUSH0 REVERT JUMPDEST POP PUSH2 0x260 PUSH1 0x4 DUP1 CALLDATASIZE SUB DUP2 ADD SWAP1 PUSH2 0x25B SWAP2 SWAP1 PUSH2 0xF98 JUMP JUMPDEST PUSH2 0xA8F JUMP JUMPDEST STOP JUMPDEST CALLVALUE DUP1 ISZERO PUSH2 0x26D JUMPI PUSH0 PUSH0 REVERT JUMPDEST POP PUSH2 0x288 PUSH1 0x4 DUP1 CALLDATASIZE SUB DUP2 ADD SWAP1 PUSH2 0x283 SWAP2 SWAP1 PUSH2 0x1079 JUMP JUMPDEST PUSH2 0xC60 JUMP JUMPDEST PUSH1 0x40 MLOAD PUSH2 0x295 SWAP2 SWAP1 PUSH2 0x1036 JUMP JUMPDEST PUSH1 0x40 MLOAD DUP1 SWAP2 SUB SWAP1 RETURN JUMPDEST PUSH1 0x3 PUSH1 0x20 MSTORE DUP1 PUSH0 MSTORE PUSH1 0x40 PUSH0 KECCAK256 PUSH0 SWAP2 POP SLOAD SWAP1 PUSH2 0x100 EXP SWAP1 DIV PUSH1 0xFF AND DUP2 JUMP JUMPDEST PUSH0 PUSH0 PUSH1 0x2 DUP1 SLOAD SWAP1 POP SUB PUSH2 0x2D1 JUMPI PUSH1 0x1 SWAP1 POP PUSH2 0x3FD JUMP JUMPDEST PUSH0 PUSH1 0x4 PUSH0 PUSH1 0x2 PUSH0 DUP2 SLOAD DUP2 LT PUSH2 0x2E9 JUMPI PUSH2 0x2E8 PUSH2 0x10A4 JUMP JUMPDEST JUMPDEST SWAP1 PUSH0 MSTORE PUSH1 0x20 PUSH0 KECCAK256 ADD PUSH0 SWAP1 SLOAD SWAP1 PUSH2 0x100 EXP SWAP1 DIV PUSH20 0xFFFFFFFFFFFFFFFFFFFFFFFFFFFFFFFFFFFFFFFF AND PUSH20 0xFFFFFFFFFFFFFFFFFFFFFFFFFFFFFFFFFFFFFFFF AND PUSH20 0xFFFFFFFFFFFFFFFFFFFFFFFFFFFFFFFFFFFFFFFF AND DUP2 MSTORE PUSH1 0x20 ADD SWAP1 DUP2 MSTORE PUSH1 0x20 ADD PUSH0 KECCAK256 SLOAD SWAP1 POP PUSH0 PUSH1 0x1 SWAP1 POP JUMPDEST PUSH1 0x2 DUP1 SLOAD SWAP1 POP DUP2 LT ISZERO PUSH2 0x3F6 JUMPI DUP2 PUSH1 0x4 PUSH0 PUSH1 0x2 DUP5 DUP2 SLOAD DUP2 LT PUSH2 0x378 JUMPI PUSH2 0x377 PUSH2 0x10A4 JUMP JUMPDEST JUMPDEST SWAP1 PUSH0 MSTORE PUSH1 0x20 PUSH0 KECCAK256 ADD PUSH0 SWAP1 SLOAD SWAP1 PUSH2 0x100 EXP SWAP1 DIV PUSH20 0xFFFFFFFFFFFFFFFFFFFFFFFFFFFFFFFFFFFFFFFF AND PUSH20 0xFFFFFFFFFFFFFFFFFFFFFFFFFFFFFFFFFFFFFFFF AND PUSH20 0xFFFFFFFFFFFFFFFFFFFFFFFFFFFFFFFFFFFFFFFF AND DUP2 MSTORE PUSH1 0x20 ADD SWAP1 DUP2 MSTORE PUSH1 0x20 ADD PUSH0 KECCAK256 SLOAD EQ PUSH2 0x3E9 JUMPI PUSH0 SWAP3 POP POP POP PUSH2 0x3FD JUMP JUMPDEST DUP1 DUP1 PUSH1 0x1 ADD SWAP2 POP POP PUSH2 0x353 JUMP JUMPDEST POP PUSH1 0x1 SWAP2 POP POP JUMPDEST SWAP1 JUMP JUMPDEST PUSH1 0x1 PUSH0 SWAP1 SLOAD SWAP1 PUSH2 0x100 EXP SWAP1 DIV PUSH20 0xFFFFFFFFFFFFFFFFFFFFFFFFFFFFFFFFFFFFFFFF AND PUSH20 0xFFFFFFFFFFFFFFFFFFFFFFFFFFFFFFFFFFFFFFFF AND CALLER PUSH20 0xFFFFFFFFFFFFFFFFFFFFFFFFFFFFFFFFFFFFFFFF AND EQ PUSH2 0x48F JUMPI PUSH1 0x40 MLOAD PUSH32 0x8C379A000000000000000000000000000000000000000000000000000000000 DUP2 MSTORE PUSH1 0x4 ADD PUSH2 0x486 SWAP1 PUSH2 0x112B JUMP JUMPDEST PUSH1 0x40 MLOAD DUP1 SWAP2 SUB SWAP1 REVERT JUMPDEST PUSH1 0x3 PUSH0 DUP3 PUSH20 0xFFFFFFFFFFFFFFFFFFFFFFFFFFFFFFFFFFFFFFFF AND PUSH20 0xFFFFFFFFFFFFFFFFFFFFFFFFFFFFFFFFFFFFFFFF AND DUP2 MSTORE PUSH1 0x20 ADD SWAP1 DUP2 MSTORE PUSH1 0x20 ADD PUSH0 KECCAK256 PUSH0 SWAP1 SLOAD SWAP1 PUSH2 0x100 EXP SWAP1 DIV PUSH1 0xFF AND PUSH2 0x518 JUMPI PUSH1 0x40 MLOAD PUSH32 0x8C379A000000000000000000000000000000000000000000000000000000000 DUP2 MSTORE PUSH1 0x4 ADD PUSH2 0x50F SWAP1 PUSH2 0x1193 JUMP JUMPDEST PUSH1 0x40 MLOAD DUP1 SWAP2 SUB SWAP1 REVERT JUMPDEST PUSH0 PUSH0 SLOAD SWAP1 POP PUSH0 PUSH0 DUP2 SWAP1 SSTORE POP PUSH0 PUSH0 SWAP1 POP JUMPDEST PUSH1 0x2 DUP1 SLOAD SWAP1 POP DUP2 LT ISZERO PUSH2 0x5BF JUMPI PUSH0 PUSH1 0x4 PUSH0 PUSH1 0x2 DUP5 DUP2 SLOAD DUP2 LT PUSH2 0x54D JUMPI PUSH2 0x54C PUSH2 0x10A4 JUMP JUMPDEST JUMPDEST SWAP1 PUSH0 MSTORE PUSH1 0x20 PUSH0 KECCAK256 ADD PUSH0 SWAP1 SLOAD SWAP1 PUSH2 0x100 EXP SWAP1 DIV PUSH20 0xFFFFFFFFFFFFFFFFFFFFFFFFFFFFFFFFFFFFFFFF AND PUSH20 0xFFFFFFFFFFFFFFFFFFFFFFFFFFFFFFFFFFFFFFFF AND PUSH20 0xFFFFFFFFFFFFFFFFFFFFFFFFFFFFFFFFFFFFFFFF AND DUP2 MSTORE PUSH1 0x20 ADD SWAP1 DUP2 MSTORE PUSH1 0x20 ADD PUSH0 KECCAK256 DUP2 SWAP1 SSTORE POP DUP1 DUP1 PUSH1 0x1 ADD SWAP2 POP POP PUSH2 0x528 JUMP JUMPDEST POP PUSH0 DUP3 PUSH20 0xFFFFFFFFFFFFFFFFFFFFFFFFFFFFFFFFFFFFFFFF AND DUP3 PUSH1 0x40 MLOAD PUSH2 0x5E5 SWAP1 PUSH2 0x11DE JUMP JUMPDEST PUSH0 PUSH1 0x40 MLOAD DUP1 DUP4 SUB DUP2 DUP6 DUP8 GAS CALL SWAP3 POP POP POP RETURNDATASIZE DUP1 PUSH0 DUP2 EQ PUSH2 0x61F JUMPI PUSH1 0x40 MLOAD SWAP2 POP PUSH1 0x1F NOT PUSH1 0x3F RETURNDATASIZE ADD AND DUP3 ADD PUSH1 0x40 MSTORE RETURNDATASIZE DUP3 MSTORE RETURNDATASIZE PUSH0 PUSH1 0x20 DUP5 ADD RETURNDATACOPY PUSH2 0x624 JUMP JUMPDEST PUSH1 0x60 SWAP2 POP JUMPDEST POP POP SWAP1 POP DUP1 PUSH2 0x668 JUMPI PUSH1 0x40 MLOAD PUSH32 0x8C379A000000000000000000000000000000000000000000000000000000000 DUP2 MSTORE PUSH1 0x4 ADD PUSH2 0x65F SWAP1 PUSH2 0x123C JUMP JUMPDEST PUSH1 0x40 MLOAD DUP1 SWAP2 SUB SWAP1 REVERT JUMPDEST POP POP POP JUMP JUMPDEST PUSH0 SLOAD DUP2 JUMP JUMPDEST PUSH1 0x1 PUSH0 SWAP1 SLOAD SWAP1 PUSH2 0x100 EXP SWAP1 DIV PUSH20 0xFFFFFFFFFFFFFFFFFFFFFFFFFFFFFFFFFFFFFFFF AND PUSH20 0xFFFFFFFFFFFFFFFFFFFFFFFFFFFFFFFFFFFFFFFF AND CALLER PUSH20 0xFFFFFFFFFFFFFFFFFFFFFFFFFFFFFFFFFFFFFFFF AND EQ PUSH2 0x701 JUMPI PUSH1 0x40 MLOAD PUSH32 0x8C379A000000000000000000000000000000000000000000000000000000000 DUP2 MSTORE PUSH1 0x4 ADD PUSH2 0x6F8 SWAP1 PUSH2 0x112B JUMP JUMPDEST PUSH1 0x40 MLOAD DUP1 SWAP2 SUB SWAP1 REVERT JUMPDEST PUSH2 0x70A DUP2 PUSH2 0xC9B JUMP JUMPDEST POP JUMP JUMPDEST PUSH1 0x1 PUSH0 SWAP1 SLOAD SWAP1 PUSH2 0x100 EXP SWAP1 DIV PUSH20 0xFFFFFFFFFFFFFFFFFFFFFFFFFFFFFFFFFFFFFFFF AND DUP2 JUMP JUMPDEST PUSH0 PUSH0 PUSH0 SWAP1 POP PUSH0 PUSH0 SWAP1 POP JUMPDEST PUSH1 0x2 DUP1 SLOAD SWAP1 POP DUP2 LT ISZERO PUSH2 0x852 JUMPI DUP2 PUSH1 0x4 PUSH0 PUSH1 0x2 DUP5 DUP2 SLOAD DUP2 LT PUSH2 0x761 JUMPI PUSH2 0x760 PUSH2 0x10A4 JUMP JUMPDEST JUMPDEST SWAP1 PUSH0 MSTORE PUSH1 0x20 PUSH0 KECCAK256 ADD PUSH0 SWAP1 SLOAD SWAP1 PUSH2 0x100 EXP SWAP1 DIV PUSH20 0xFFFFFFFFFFFFFFFFFFFFFFFFFFFFFFFFFFFFFFFF AND PUSH20 0xFFFFFFFFFFFFFFFFFFFFFFFFFFFFFFFFFFFFFFFF AND PUSH20 0xFFFFFFFFFFFFFFFFFFFFFFFFFFFFFFFFFFFFFFFF AND DUP2 MSTORE PUSH1 0x20 ADD SWAP1 DUP2 MSTORE PUSH1 0x20 ADD PUSH0 KECCAK256 SLOAD GT ISZERO PUSH2 0x845 JUMPI PUSH1 0x4 PUSH0 PUSH1 0x2 DUP4 DUP2 SLOAD DUP2 LT PUSH2 0x7E0 JUMPI PUSH2 0x7DF PUSH2 0x10A4 JUMP JUMPDEST JUMPDEST SWAP1 PUSH0 MSTORE PUSH1 0x20 PUSH0 KECCAK256 ADD PUSH0 SWAP1 SLOAD SWAP1 PUSH2 0x100 EXP SWAP1 DIV PUSH20 0xFFFFFFFFFFFFFFFFFFFFFFFFFFFFFFFFFFFFFFFF AND PUSH20 0xFFFFFFFFFFFFFFFFFFFFFFFFFFFFFFFFFFFFFFFF AND PUSH20 0xFFFFFFFFFFFFFFFFFFFFFFFFFFFFFFFFFFFFFFFF AND DUP2 MSTORE PUSH1 0x20 ADD SWAP1 DUP2 MSTORE PUSH1 0x20 ADD PUSH0 KECCAK256 SLOAD SWAP2 POP JUMPDEST DUP1 DUP1 PUSH1 0x1 ADD SWAP2 POP POP PUSH2 0x73C JUMP JUMPDEST POP DUP1 SWAP2 POP POP SWAP1 JUMP JUMPDEST PUSH1 0x3 PUSH0 CALLER PUSH20 0xFFFFFFFFFFFFFFFFFFFFFFFFFFFFFFFFFFFFFFFF AND PUSH20 0xFFFFFFFFFFFFFFFFFFFFFFFFFFFFFFFFFFFFFFFF AND DUP2 MSTORE PUSH1 0x20 ADD SWAP1 DUP2 MSTORE PUSH1 0x20 ADD PUSH0 KECCAK256 PUSH0 SWAP1 SLOAD SWAP1 PUSH2 0x100 EXP SWAP1 DIV PUSH1 0xFF AND PUSH2 0x8E3 JUMPI PUSH1 0x40 MLOAD PUSH32 0x8C379A000000000000000000000000000000000000000000000000000000000 DUP2 MSTORE PUSH1 0x4 ADD PUSH2 0x8DA SWAP1 PUSH2 0x12A4 JUMP JUMPDEST PUSH1 0x40 MLOAD DUP1 SWAP2 SUB SWAP1 REVERT JUMPDEST PUSH0 PUSH2 0x8EC PUSH2 0x732 JUMP JUMPDEST SWAP1 POP DUP1 CALLVALUE PUSH1 0x4 PUSH0 CALLER PUSH20 0xFFFFFFFFFFFFFFFFFFFFFFFFFFFFFFFFFFFFFFFF AND PUSH20 0xFFFFFFFFFFFFFFFFFFFFFFFFFFFFFFFFFFFFFFFF AND DUP2 MSTORE PUSH1 0x20 ADD SWAP1 DUP2 MSTORE PUSH1 0x20 ADD PUSH0 KECCAK256 SLOAD PUSH2 0x938 SWAP2 SWAP1 PUSH2 0x12EF JUMP JUMPDEST LT ISZERO PUSH2 0x979 JUMPI PUSH1 0x40 MLOAD PUSH32 0x8C379A000000000000000000000000000000000000000000000000000000000 DUP2 MSTORE PUSH1 0x4 ADD PUSH2 0x970 SWAP1 PUSH2 0x136C JUMP JUMPDEST PUSH1 0x40 MLOAD DUP1 SWAP2 SUB SWAP1 REVERT JUMPDEST CALLVALUE PUSH1 0x4 PUSH0 CALLER PUSH20 0xFFFFFFFFFFFFFFFFFFFFFFFFFFFFFFFFFFFFFFFF AND PUSH20 0xFFFFFFFFFFFFFFFFFFFFFFFFFFFFFFFFFFFFFFFF AND DUP2 MSTORE PUSH1 0x20 ADD SWAP1 DUP2 MSTORE PUSH1 0x20 ADD PUSH0 KECCAK256 PUSH0 DUP3 DUP3 SLOAD PUSH2 0x9C5 SWAP2 SWAP1 PUSH2 0x12EF JUMP JUMPDEST SWAP3 POP POP DUP2 SWAP1 SSTORE POP CALLVALUE PUSH0 PUSH0 DUP3 DUP3 SLOAD PUSH2 0x9DC SWAP2 SWAP1 PUSH2 0x12EF JUMP JUMPDEST SWAP3 POP POP DUP2 SWAP1 SSTORE POP POP JUMP JUMPDEST PUSH1 0x3 PUSH0 CALLER PUSH20 0xFFFFFFFFFFFFFFFFFFFFFFFFFFFFFFFFFFFFFFFF AND PUSH20 0xFFFFFFFFFFFFFFFFFFFFFFFFFFFFFFFFFFFFFFFF AND DUP2 MSTORE PUSH1 0x20 ADD SWAP1 DUP2 MSTORE PUSH1 0x20 ADD PUSH0 KECCAK256 PUSH0 SWAP1 SLOAD SWAP1 PUSH2 0x100 EXP SWAP1 DIV PUSH1 0xFF AND PUSH2 0xA6F JUMPI PUSH1 0x40 MLOAD PUSH32 0x8C379A000000000000000000000000000000000000000000000000000000000 DUP2 MSTORE PUSH1 0x4 ADD PUSH2 0xA66 SWAP1 PUSH2 0x12A4 JUMP JUMPDEST PUSH1 0x40 MLOAD DUP1 SWAP2 SUB SWAP1 REVERT JUMPDEST PUSH2 0xA78 CALLER PUSH2 0xC9B JUMP JUMPDEST JUMP JUMPDEST PUSH1 0x4 PUSH1 0x20 MSTORE DUP1 PUSH0 MSTORE PUSH1 0x40 PUSH0 KECCAK256 PUSH0 SWAP2 POP SWAP1 POP SLOAD DUP2 JUMP JUMPDEST PUSH1 0x1 PUSH0 SWAP1 SLOAD SWAP1 PUSH2 0x100 EXP SWAP1 DIV PUSH20 0xFFFFFFFFFFFFFFFFFFFFFFFFFFFFFFFFFFFFFFFF AND PUSH20 0xFFFFFFFFFFFFFFFFFFFFFFFFFFFFFFFFFFFFFFFF AND CALLER PUSH20 0xFFFFFFFFFFFFFFFFFFFFFFFFFFFFFFFFFFFFFFFF AND EQ PUSH2 0xB1E JUMPI PUSH1 0x40 MLOAD PUSH32 0x8C379A000000000000000000000000000000000000000000000000000000000 DUP2 MSTORE PUSH1 0x4 ADD PUSH2 0xB15 SWAP1 PUSH2 0x112B JUMP JUMPDEST PUSH1 0x40 MLOAD DUP1 SWAP2 SUB SWAP1 REVERT JUMPDEST PUSH1 0x3 PUSH0 DUP3 PUSH20 0xFFFFFFFFFFFFFFFFFFFFFFFFFFFFFFFFFFFFFFFF AND PUSH20 0xFFFFFFFFFFFFFFFFFFFFFFFFFFFFFFFFFFFFFFFF AND DUP2 MSTORE PUSH1 0x20 ADD SWAP1 DUP2 MSTORE PUSH1 0x20 ADD PUSH0 KECCAK256 PUSH0 SWAP1 SLOAD SWAP1 PUSH2 0x100 EXP SWAP1 DIV PUSH1 0xFF AND ISZERO PUSH2 0xBA8 JUMPI PUSH1 0x40 MLOAD PUSH32 0x8C379A000000000000000000000000000000000000000000000000000000000 DUP2 MSTORE PUSH1 0x4 ADD PUSH2 0xB9F SWAP1 PUSH2 0x13D4 JUMP JUMPDEST PUSH1 0x40 MLOAD DUP1 SWAP2 SUB SWAP1 REVERT JUMPDEST PUSH1 0x1 PUSH1 0x3 PUSH0 DUP4 PUSH20 0xFFFFFFFFFFFFFFFFFFFFFFFFFFFFFFFFFFFFFFFF AND PUSH20 0xFFFFFFFFFFFFFFFFFFFFFFFFFFFFFFFFFFFFFFFF AND DUP2 MSTORE PUSH1 0x20 ADD SWAP1 DUP2 MSTORE PUSH1 0x20 ADD PUSH0 KECCAK256 PUSH0 PUSH2 0x100 EXP DUP2 SLOAD DUP2 PUSH1 0xFF MUL NOT AND SWAP1 DUP4 ISZERO ISZERO MUL OR SWAP1 SSTORE POP PUSH1 0x2 DUP2 SWAP1 DUP1 PUSH1 0x1 DUP2 SLOAD ADD DUP1 DUP3 SSTORE DUP1 SWAP2 POP POP PUSH1 0x1 SWAP1 SUB SWAP1 PUSH0 MSTORE PUSH1 0x20 PUSH0 KECCAK256 ADD PUSH0 SWAP1 SWAP2 SWAP1 SWAP2 SWAP1 SWAP2 PUSH2 0x100 EXP DUP2 SLOAD DUP2 PUSH20 0xFFFFFFFFFFFFFFFFFFFFFFFFFFFFFFFFFFFFFFFF MUL NOT AND SWAP1 DUP4 PUSH20 0xFFFFFFFFFFFFFFFFFFFFFFFFFFFFFFFFFFFFFFFF AND MUL OR SWAP1 SSTORE POP POP JUMP JUMPDEST PUSH1 0x2 DUP2 DUP2 SLOAD DUP2 LT PUSH2 0xC6F JUMPI PUSH0 DUP1 REVERT JUMPDEST SWAP1 PUSH0 MSTORE PUSH1 0x20 PUSH0 KECCAK256 ADD PUSH0 SWAP2 POP SLOAD SWAP1 PUSH2 0x100 EXP SWAP1 DIV PUSH20 0xFFFFFFFFFFFFFFFFFFFFFFFFFFFFFFFFFFFFFFFF AND DUP2 JUMP JUMPDEST PUSH1 0x3 PUSH0 DUP3 PUSH20 0xFFFFFFFFFFFFFFFFFFFFFFFFFFFFFFFFFFFFFFFF AND PUSH20 0xFFFFFFFFFFFFFFFFFFFFFFFFFFFFFFFFFFFFFFFF AND DUP2 MSTORE PUSH1 0x20 ADD SWAP1 DUP2 MSTORE PUSH1 0x20 ADD PUSH0 KECCAK256 PUSH0 SWAP1 SLOAD SWAP1 PUSH2 0x100 EXP SWAP1 DIV PUSH1 0xFF AND PUSH2 0xD24 JUMPI PUSH1 0x40 MLOAD PUSH32 0x8C379A000000000000000000000000000000000000000000000000000000000 DUP2 MSTORE PUSH1 0x4 ADD PUSH2 0xD1B SWAP1 PUSH2 0x143C JUMP JUMPDEST PUSH1 0x40 MLOAD DUP1 SWAP2 SUB SWAP1 REVERT JUMPDEST PUSH0 PUSH1 0x3 PUSH0 DUP4 PUSH20 0xFFFFFFFFFFFFFFFFFFFFFFFFFFFFFFFFFFFFFFFF AND PUSH20 0xFFFFFFFFFFFFFFFFFFFFFFFFFFFFFFFFFFFFFFFF AND DUP2 MSTORE PUSH1 0x20 ADD SWAP1 DUP2 MSTORE PUSH1 0x20 ADD PUSH0 KECCAK256 PUSH0 PUSH2 0x100 EXP DUP2 SLOAD DUP2 PUSH1 0xFF MUL NOT AND SWAP1 DUP4 ISZERO ISZERO MUL OR SWAP1 SSTORE POP PUSH0 PUSH1 0x4 PUSH0 DUP4 PUSH20 0xFFFFFFFFFFFFFFFFFFFFFFFFFFFFFFFFFFFFFFFF AND PUSH20 0xFFFFFFFFFFFFFFFFFFFFFFFFFFFFFFFFFFFFFFFF AND DUP2 MSTORE PUSH1 0x20 ADD SWAP1 DUP2 MSTORE PUSH1 0x20 ADD PUSH0 KECCAK256 DUP2 SWAP1 SSTORE POP PUSH0 PUSH0 SWAP1 POP JUMPDEST PUSH1 0x2 DUP1 SLOAD SWAP1 POP DUP2 LT ISZERO PUSH2 0xF36 JUMPI DUP2 PUSH20 0xFFFFFFFFFFFFFFFFFFFFFFFFFFFFFFFFFFFFFFFF AND PUSH1 0x2 DUP3 DUP2 SLOAD DUP2 LT PUSH2 0xDF7 JUMPI PUSH2 0xDF6 PUSH2 0x10A4 JUMP JUMPDEST JUMPDEST SWAP1 PUSH0 MSTORE PUSH1 0x20 PUSH0 KECCAK256 ADD PUSH0 SWAP1 SLOAD SWAP1 PUSH2 0x100 EXP SWAP1 DIV PUSH20 0xFFFFFFFFFFFFFFFFFFFFFFFFFFFFFFFFFFFFFFFF AND PUSH20 0xFFFFFFFFFFFFFFFFFFFFFFFFFFFFFFFFFFFFFFFF AND SUB PUSH2 0xF29 JUMPI PUSH1 0x2 PUSH1 0x1 PUSH1 0x2 DUP1 SLOAD SWAP1 POP PUSH2 0xE4E SWAP2 SWAP1 PUSH2 0x145A JUMP JUMPDEST DUP2 SLOAD DUP2 LT PUSH2 0xE5F JUMPI PUSH2 0xE5E PUSH2 0x10A4 JUMP JUMPDEST JUMPDEST SWAP1 PUSH0 MSTORE PUSH1 0x20 PUSH0 KECCAK256 ADD PUSH0 SWAP1 SLOAD SWAP1 PUSH2 0x100 EXP SWAP1 DIV PUSH20 0xFFFFFFFFFFFFFFFFFFFFFFFFFFFFFFFFFFFFFFFF AND PUSH1 0x2 DUP3 DUP2 SLOAD DUP2 LT PUSH2 0xE9B JUMPI PUSH2 0xE9A PUSH2 0x10A4 JUMP JUMPDEST JUMPDEST SWAP1 PUSH0 MSTORE PUSH1 0x20 PUSH0 KECCAK256 ADD PUSH0 PUSH2 0x100 EXP DUP2 SLOAD DUP2 PUSH20 0xFFFFFFFFFFFFFFFFFFFFFFFFFFFFFFFFFFFFFFFF MUL NOT AND SWAP1 DUP4 PUSH20 0xFFFFFFFFFFFFFFFFFFFFFFFFFFFFFFFFFFFFFFFF AND MUL OR SWAP1 SSTORE POP PUSH1 0x2 DUP1 SLOAD DUP1 PUSH2 0xEF2 JUMPI PUSH2 0xEF1 PUSH2 0x148D JUMP JUMPDEST JUMPDEST PUSH1 0x1 SWAP1 SUB DUP2 DUP2 SWAP1 PUSH0 MSTORE PUSH1 0x20 PUSH0 KECCAK256 ADD PUSH0 PUSH2 0x100 EXP DUP2 SLOAD SWAP1 PUSH20 0xFFFFFFFFFFFFFFFFFFFFFFFFFFFFFFFFFFFFFFFF MUL NOT AND SWAP1 SSTORE SWAP1 SSTORE PUSH2 0xF36 JUMP JUMPDEST DUP1 DUP1 PUSH1 0x1 ADD SWAP2 POP POP PUSH2 0xDBF JUMP JUMPDEST POP POP JUMP JUMPDEST PUSH0 PUSH0 REVERT JUMPDEST PUSH0 PUSH20 0xFFFFFFFFFFFFFFFFFFFFFFFFFFFFFFFFFFFFFFFF DUP3 AND SWAP1 POP SWAP2 SWAP1 POP JUMP JUMPDEST PUSH0 PUSH2 0xF67 DUP3 PUSH2 0xF3E JUMP JUMPDEST SWAP1 POP SWAP2 SWAP1 POP JUMP JUMPDEST PUSH2 0xF77 DUP2 PUSH2 0xF5D JUMP JUMPDEST DUP2 EQ PUSH2 0xF81 JUMPI PUSH0 PUSH0 REVERT JUMPDEST POP JUMP JUMPDEST PUSH0 DUP2 CALLDATALOAD SWAP1 POP PUSH2 0xF92 DUP2 PUSH2 0xF6E JUMP JUMPDEST SWAP3 SWAP2 POP POP JUMP JUMPDEST PUSH0 PUSH1 0x20 DUP3 DUP5 SUB SLT ISZERO PUSH2 0xFAD JUMPI PUSH2 0xFAC PUSH2 0xF3A JUMP JUMPDEST JUMPDEST PUSH0 PUSH2 0xFBA DUP5 DUP3 DUP6 ADD PUSH2 0xF84 JUMP JUMPDEST SWAP2 POP POP SWAP3 SWAP2 POP POP JUMP JUMPDEST PUSH0 DUP2 ISZERO ISZERO SWAP1 POP SWAP2 SWAP1 POP JUMP JUMPDEST PUSH2 0xFD7 DUP2 PUSH2 0xFC3 JUMP JUMPDEST DUP3 MSTORE POP POP JUMP JUMPDEST PUSH0 PUSH1 0x20 DUP3 ADD SWAP1 POP PUSH2 0xFF0 PUSH0 DUP4 ADD DUP5 PUSH2 0xFCE JUMP JUMPDEST SWAP3 SWAP2 POP POP JUMP JUMPDEST PUSH0 DUP2 SWAP1 POP SWAP2 SWAP1 POP JUMP JUMPDEST PUSH2 0x1008 DUP2 PUSH2 0xFF6 JUMP JUMPDEST DUP3 MSTORE POP POP JUMP JUMPDEST PUSH0 PUSH1 0x20 DUP3 ADD SWAP1 POP PUSH2 0x1021 PUSH0 DUP4 ADD DUP5 PUSH2 0xFFF JUMP JUMPDEST SWAP3 SWAP2 POP POP JUMP JUMPDEST PUSH2 0x1030 DUP2 PUSH2 0xF5D JUMP JUMPDEST DUP3 MSTORE POP POP JUMP JUMPDEST PUSH0 PUSH1 0x20 DUP3 ADD SWAP1 POP PUSH2 0x1049 PUSH0 DUP4 ADD DUP5 PUSH2 0x1027 JUMP JUMPDEST SWAP3 SWAP2 POP POP JUMP JUMPDEST PUSH2 0x1058 DUP2 PUSH2 0xFF6 JUMP JUMPDEST DUP2 EQ PUSH2 0x1062 JUMPI PUSH0 PUSH0 REVERT JUMPDEST POP JUMP JUMPDEST PUSH0 DUP2 CALLDATALOAD SWAP1 POP PUSH2 0x1073 DUP2 PUSH2 0x104F JUMP JUMPDEST SWAP3 SWAP2 POP POP JUMP JUMPDEST PUSH0 PUSH1 0x20 DUP3 DUP5 SUB SLT ISZERO PUSH2 0x108E JUMPI PUSH2 0x108D PUSH2 0xF3A JUMP JUMPDEST JUMPDEST PUSH0 PUSH2 0x109B DUP5 DUP3 DUP6 ADD PUSH2 0x1065 JUMP JUMPDEST SWAP2 POP POP SWAP3 SWAP2 POP POP JUMP JUMPDEST PUSH32 0x4E487B7100000000000000000000000000000000000000000000000000000000 PUSH0 MSTORE PUSH1 0x32 PUSH1 0x4 MSTORE PUSH1 0x24 PUSH0 REVERT JUMPDEST PUSH0 DUP3 DUP3 MSTORE PUSH1 0x20 DUP3 ADD SWAP1 POP SWAP3 SWAP2 POP POP JUMP JUMPDEST PUSH32 0x4F6E6C792063726F75706965722063616E20646F207468697300000000000000 PUSH0 DUP3 ADD MSTORE POP JUMP JUMPDEST PUSH0 PUSH2 0x1115 PUSH1 0x19 DUP4 PUSH2 0x10D1 JUMP JUMPDEST SWAP2 POP PUSH2 0x1120 DUP3 PUSH2 0x10E1 JUMP JUMPDEST PUSH1 0x20 DUP3 ADD SWAP1 POP SWAP2 SWAP1 POP JUMP JUMPDEST PUSH0 PUSH1 0x20 DUP3 ADD SWAP1 POP DUP2 DUP2 SUB PUSH0 DUP4 ADD MSTORE PUSH2 0x1142 DUP2 PUSH2 0x1109 JUMP JUMPDEST SWAP1 POP SWAP2 SWAP1 POP JUMP JUMPDEST PUSH32 0x57696E6E6572206D757374206265206120706C61796572000000000000000000 PUSH0 DUP3 ADD MSTORE POP JUMP JUMPDEST PUSH0 PUSH2 0x117D PUSH1 0x17 DUP4 PUSH2 0x10D1 JUMP JUMPDEST SWAP2 POP PUSH2 0x1188 DUP3 PUSH2 0x1149 JUMP JUMPDEST PUSH1 0x20 DUP3 ADD SWAP1 POP SWAP2 SWAP1 POP JUMP JUMPDEST PUSH0 PUSH1 0x20 DUP3 ADD SWAP1 POP DUP2 DUP2 SUB PUSH0 DUP4 ADD MSTORE PUSH2 0x11AA DUP2 PUSH2 0x1171 JUMP JUMPDEST SWAP1 POP SWAP2 SWAP1 POP JUMP JUMPDEST PUSH0 DUP2 SWAP1 POP SWAP3 SWAP2 POP POP JUMP JUMPDEST POP JUMP JUMPDEST PUSH0 PUSH2 0x11C9 PUSH0 DUP4 PUSH2 0x11B1 JUMP JUMPDEST SWAP2 POP PUSH2 0x11D4 DUP3 PUSH2 0x11BB JUMP JUMPDEST PUSH0 DUP3 ADD SWAP1 POP SWAP2 SWAP1 POP JUMP JUMPDEST PUSH0 PUSH2 0x11E8 DUP3 PUSH2 0x11BE JUMP JUMPDEST SWAP2 POP DUP2 SWAP1 POP SWAP2 SWAP1 POP JUMP JUMPDEST PUSH32 0x5061796F7574206661696C656400000000000000000000000000000000000000 PUSH0 DUP3 ADD MSTORE POP JUMP JUMPDEST PUSH0 PUSH2 0x1226 PUSH1 0xD DUP4 PUSH2 0x10D1 JUMP JUMPDEST SWAP2 POP PUSH2 0x1231 DUP3 PUSH2 0x11F2 JUMP JUMPDEST PUSH1 0x20 DUP3 ADD SWAP1 POP SWAP2 SWAP1 POP JUMP JUMPDEST PUSH0 PUSH1 0x20 DUP3 ADD SWAP1 POP DUP2 DUP2 SUB PUSH0 DUP4 ADD MSTORE PUSH2 0x1253 DUP2 PUSH2 0x121A JUMP JUMPDEST SWAP1 POP SWAP2 SWAP1 POP JUMP JUMPDEST PUSH32 0x4F6E6C7920706C617965722063616E20646F2074686973000000000000000000 PUSH0 DUP3 ADD MSTORE POP JUMP JUMPDEST PUSH0 PUSH2 0x128E PUSH1 0x17 DUP4 PUSH2 0x10D1 JUMP JUMPDEST SWAP2 POP PUSH2 0x1299 DUP3 PUSH2 0x125A JUMP JUMPDEST PUSH1 0x20 DUP3 ADD SWAP1 POP SWAP2 SWAP1 POP JUMP JUMPDEST PUSH0 PUSH1 0x20 DUP3 ADD SWAP1 POP DUP2 DUP2 SUB PUSH0 DUP4 ADD MSTORE PUSH2 0x12BB DUP2 PUSH2 0x1282 JUMP JUMPDEST SWAP1 POP SWAP2 SWAP1 POP JUMP JUMPDEST PUSH32 0x4E487B7100000000000000000000000000000000000000000000000000000000 PUSH0 MSTORE PUSH1 0x11 PUSH1 0x4 MSTORE PUSH1 0x24 PUSH0 REVERT JUMPDEST PUSH0 PUSH2 0x12F9 DUP3 PUSH2 0xFF6 JUMP JUMPDEST SWAP2 POP PUSH2 0x1304 DUP4 PUSH2 0xFF6 JUMP JUMPDEST SWAP3 POP DUP3 DUP3 ADD SWAP1 POP DUP1 DUP3 GT ISZERO PUSH2 0x131C JUMPI PUSH2 0x131B PUSH2 0x12C2 JUMP JUMPDEST JUMPDEST SWAP3 SWAP2 POP POP JUMP JUMPDEST PUSH32 0x5061726C6179206973206C6F776572207468616E206D61782070726963650000 PUSH0 DUP3 ADD MSTORE POP JUMP JUMPDEST PUSH0 PUSH2 0x1356 PUSH1 0x1E DUP4 PUSH2 0x10D1 JUMP JUMPDEST SWAP2 POP PUSH2 0x1361 DUP3 PUSH2 0x1322 JUMP JUMPDEST PUSH1 0x20 DUP3 ADD SWAP1 POP SWAP2 SWAP1 POP JUMP JUMPDEST PUSH0 PUSH1 0x20 DUP3 ADD SWAP1 POP DUP2 DUP2 SUB PUSH0 DUP4 ADD MSTORE PUSH2 0x1383 DUP2 PUSH2 0x134A JUMP JUMPDEST SWAP1 POP SWAP2 SWAP1 POP JUMP JUMPDEST PUSH32 0x416C726561647920706C61796572000000000000000000000000000000000000 PUSH0 DUP3 ADD MSTORE POP JUMP JUMPDEST PUSH0 PUSH2 0x13BE PUSH1 0xE DUP4 PUSH2 0x10D1 JUMP JUMPDEST SWAP2 POP PUSH2 0x13C9 DUP3 PUSH2 0x138A JUMP JUMPDEST PUSH1 0x20 DUP3 ADD SWAP1 POP SWAP2 SWAP1 POP JUMP JUMPDEST PUSH0 PUSH1 0x20 DUP3 ADD SWAP1 POP DUP2 DUP2 SUB PUSH0 DUP4 ADD MSTORE PUSH2 0x13EB DUP2 PUSH2 0x13B2 JUMP JUMPDEST SWAP1 POP SWAP2 SWAP1 POP JUMP JUMPDEST PUSH32 0x4E6F74206120706C617965720000000000000000000000000000000000000000 PUSH0 DUP3 ADD MSTORE POP JUMP JUMPDEST PUSH0 PUSH2 0x1426 PUSH1 0xC DUP4 PUSH2 0x10D1 JUMP JUMPDEST SWAP2 POP PUSH2 0x1431 DUP3 PUSH2 0x13F2 JUMP JUMPDEST PUSH1 0x20 DUP3 ADD SWAP1 POP SWAP2 SWAP1 POP JUMP JUMPDEST PUSH0 PUSH1 0x20 DUP3 ADD SWAP1 POP DUP2 DUP2 SUB PUSH0 DUP4 ADD MSTORE PUSH2 0x1453 DUP2 PUSH2 0x141A JUMP JUMPDEST SWAP1 POP SWAP2 SWAP1 POP JUMP JUMPDEST PUSH0 PUSH2 0x1464 DUP3 PUSH2 0xFF6 JUMP JUMPDEST SWAP2 POP PUSH2 0x146F DUP4 PUSH2 0xFF6 JUMP JUMPDEST SWAP3 POP DUP3 DUP3 SUB SWAP1 POP DUP2 DUP2 GT ISZERO PUSH2 0x1487 JUMPI PUSH2 0x1486 PUSH2 0x12C2 JUMP JUMPDEST JUMPDEST SWAP3 SWAP2 POP POP JUMP JUMPDEST PUSH32 0x4E487B7100000000000000000000000000000000000000000000000000000000 PUSH0 MSTORE PUSH1 0x31 PUSH1 0x4 MSTORE PUSH1 0x24 PUSH0 REVERT INVALID LOG2 PUSH5 0x6970667358 0x22 SLT KECCAK256 SWAP7 0xB1 0xD2 RETURNCONTRACT 0x84 DUP8 0xDD PUSH4 0xF45970B8 0xBA DUP14 BLOCKHASH 0xDA PUSH31 0xE556B11AC8832D1FA142607A334D9464736F6C634300082200330000000000 "
				},
				"gasEstimates": {
					"creation": {
						"codeDepositCost": "1072000",
						"executionCost": "25377",
						"totalCost": "1097377"
					},
					"external": {
						"addPlayer(address)": "77879",
						"allParlayEqual()": "infinite",
						"croupier()": "2619",
						"getMaxPrice()": "infinite",
						"isPlayer(address)": "2834",
						"makeParlay()": "infinite",
						"money()": "2491",
						"pass()": "infinite",
						"payout(address)": "infinite",
						"players(uint256)": "5054",
						"price(address)": "2868",
						"removePlayer(address)": "infinite"
					},
					"internal": {
						"_removePlayer(address)": "infinite"
					}
				},
				"methodIdentifiers": {
					"addPlayer(address)": "b1275f9a",
					"allParlayEqual()": "0b6df43a",
					"croupier()": "6b5c5f39",
					"getMaxPrice()": "82d8dff6",
					"isPlayer(address)": "09c95e10",
					"makeParlay()": "9fe6f59c",
					"money()": "4ddd108a",
					"pass()": "a7a1ed72",
					"payout(address)": "0b7e9c44",
					"players(uint256)": "f71d96cb",
					"price(address)": "aea91078",
					"removePlayer(address)": "5bb12a1a"
				}
			},
			"storageLayout": {
				"storage": [
					{
						"astId": 3,
						"contract": "poker.sol:Poker",
						"label": "money",
						"offset": 0,
						"slot": "0",
						"type": "t_uint256"
					},
					{
						"astId": 5,
						"contract": "poker.sol:Poker",
						"label": "croupier",
						"offset": 0,
						"slot": "1",
						"type": "t_address"
					},
					{
						"astId": 8,
						"contract": "poker.sol:Poker",
						"label": "players",
						"offset": 0,
						"slot": "2",
						"type": "t_array(t_address)dyn_storage"
					},
					{
						"astId": 12,
						"contract": "poker.sol:Poker",
						"label": "isPlayer",
						"offset": 0,
						"slot": "3",
						"type": "t_mapping(t_address,t_bool)"
					},
					{
						"astId": 16,
						"contract": "poker.sol:Poker",
						"label": "price",
						"offset": 0,
						"slot": "4",
						"type": "t_mapping(t_address,t_uint256)"
					}
				],
				"types": {
					"t_address": {
						"encoding": "inplace",
						"label": "address",
						"numberOfBytes": "20"
					},
					"t_array(t_address)dyn_storage": {
						"base": "t_address",
						"encoding": "dynamic_array",
						"label": "address[]",
						"numberOfBytes": "32"
					},
					"t_bool": {
						"encoding": "inplace",
						"label": "bool",
						"numberOfBytes": "1"
					},
					"t_mapping(t_address,t_bool)": {
						"encoding": "mapping",
						"key": "t_address",
						"label": "mapping(address => bool)",
						"numberOfBytes": "32",
						"value": "t_bool"
					},
					"t_mapping(t_address,t_uint256)": {
						"encoding": "mapping",
						"key": "t_address",
						"label": "mapping(address => uint256)",
						"numberOfBytes": "32",
						"value": "t_uint256"
					},
					"t_uint256": {
						"encoding": "inplace",
						"label": "uint256",
						"numberOfBytes": "32"
					}
				}
			},
			"userdoc": {
				"kind": "user",
				"methods": {},
				"version": 1
			}
		}
	}
}